:020000040800F2
:1000000000000120091A0008BD180008BF180008E8
:10001000C1180008C3180008C51800080000000037
:10002000000000000000000000000000C171000896
:10003000C718000800000000617200082F6D00085A
:10004000591A0008591A0008591A0008591A0008C4
:10005000591A0008591A0008591A0008591A0008B4
:10006000591A0008591A0008591A0008591A0008A4
:10007000C9180008D9180008DB180008DD180008A6
:10008000ED180008EF180008591A0008591A00085E
:10009000591A0008591A0008591A0008591A000874
:1000A000591A0008591A0008591A0008591A000864
:1000B000591A00080000000000000000591A00084A
:1000C000F1180008591A0008591A0008591A0008AE
:1000D000591A00080119000811190008131900081D
:1000E000591A0008591A000800000000000000001A
:1000F0000000000000000000000000000000000000
:10010000000000001519000800000000591A00083E
:10011000000000000000000025190008591A00081E
:10012000591A0008591A0008591A00083519000808
:100130004519000800000000000000000000000059
:10014000591A0008591A0008591A0008000000003E
:100150005519000865190008591A0008591A0008AD
:10016000591A0008591A0008591A0008000000001E
:10017000591A0008591A0008000000000000000089
:0C018000591A0008591A0008591A000802
:1001C000844641EA000313F003036DD1403A41D362
:1001D00051F8043B40F8043B51F8043B40F8043B21
:1001E00051F8043B40F8043B51F8043B40F8043B11
:1001F00051F8043B40F8043B51F8043B40F8043B01
:1002000051F8043B40F8043B51F8043B40F8043BF0
:1002100051F8043B40F8043B51F8043B40F8043BE0
:1002200051F8043B40F8043B51F8043B40F8043BD0
:1002300051F8043B40F8043B51F8043B40F8043BC0
:1002400051F8043B40F8043B51F8043B40F8043BB0
:10025000403ABDD2303211D351F8043B40F8043B50
:1002600051F8043B40F8043B51F8043B40F8043B90
:1002700051F8043B40F8043B103AEDD20C3205D360
:1002800051F8043B40F8043B043AF9D2043208D058
:10029000D2071CBF11F8013B00F8013B01D30B88CA
:1002A00003806046704700BF082A13D38B078DD0A8
:1002B00010F003038AD0C3F10403D21ADB071CBF7A
:1002C00011F8013B00F8013B80D331F8023B20F8E4
:1002D000023B7BE7043AD9D3013A11F8013B00F81D
:1002E000013BF9D20B7803704B7843708B788370A5
:1002F00060467047000000000000000000000000A1
:1003000030B490F800F020F007016FF0000C10F00E
:10031000070491F820F040F048804FF000046FF09F
:100320000700D1E9002391F840F000F1080082FABB
:100330004CF2A4FA8CF283FA4CF3A2FA8CF34BBB86
:10034000D1E9022382FA4CF200F10800A4FA8CF2FF
:1003500083FA4CF3A2FA8CF3E3B9D1E9042382FACD
:100360004CF200F10800A4FA8CF283FA4CF3A2FAE2
:100370008CF37BB9D1E9062301F1200182FA4CF21A
:1003800000F10800A4FA8CF283FA4CF3A2FA8CF381
:10039000002BC6D0002A04BF04301A4612BAB2FAA3
:1003A00082F200EBD20030BC7047D1E9002304F0A8
:1003B0000305C4F100004FEAC50514F0040F91F8DD
:1003C00040F00CFA05F562EA05021CBF63EA05037A
:1003D00062464FF00004AAE70000000000000000A1
:1003E00001F0FF01102A2BDB10F0070F08D010F8E6
:1003F000013B013A8B422DD010F0070F42B3F6D1EA
:10040000F0B441EA012141EA014122F007047FF002
:1004100000070023F0E80256083C85EA010586EA59
:10042000010685FA47F5A3FA87F586FA47F6A5FA95
:1004300087F68EB9EED1F0BC01F0FF0102F00702A1
:1004400032B110F8013B013A83EA010313B1F8D14C
:100450000020704701387047002D06BF354603382D
:10046000073815F0010F07D1013015F4807F02BF66
:10047000013015F4C03F0130F0BC0138704700BFB7
:100480000348044B834202D0034B03B11847704723
:100490006005002060050020000000000548064BB4
:1004A0001B1AD90F01EBA301491002D0034B03B172
:1004B000184770476005002060050020000000001C
:1004C00010B5064C237843B9FFF7DAFF044B13B19C
:1004D0000448AFF300800123237010BD60050020A5
:1004E0000000000048A9000808B5054B1BB10549EC
:1004F0000548AFF30080BDE80840FFF7CFBF00BF5D
:10050000000000006405002048A9000800B500F0C4
:100510000700C0F1070CBCF1040F28BF4FF0040C1A
:10052000031D062B0FD9C31E4FF0FF3E0EFA0CF031
:1005300021EA000199400EFA03FE22EA0E0241EA86
:1005400002005DF804FB0023EEE74FF06043D3F8B0
:10055000803E13F0010F11D04FF06043D3F8003EFE
:1005600013F0010F01D1704700BF4FF060431B68CB
:10057000002BF9D0C3B24FF060421370704700688F
:1005800010F4003000D001207047006810F4802083
:1005900000D0012070474FF40033436070474FF4A0
:1005A0008023436070470000064B074A1A60002210
:1005B0005A609A60DA604FF4006119615A619A6179
:1005C000704700BFB407002000280140F0B58BB091
:1005D000002405940694079408940994304BDA6C2F
:1005E00042F00402DA64DA6C02F004020192019A29
:1005F000DA6C42F00102DA64DA6C02F00102029273
:10060000029ADA6C42F00202DA64DA6C02F0020258
:100610000392039ADA6C42F00802DA64DB6C03F0AE
:1006200008030493049B1F4E2246C821304601F064
:1006300034FE224660214FF0904001F02EFE1A4F0A
:1006400022464FF48071384601F027FE42F204033F
:1006500005930694079405A9304601F033FDC8239D
:100660000593012506950794089405A9304601F0E5
:1006700029FD6023059306950794089405A94FF07A
:10068000904001F01FFD4FF4807305930695079489
:10069000089405A9384601F015FD0BB0F0BD00BF68
:1006A00000100240000800480004004830B583B044
:1006B000424B9A6C42F002029A649A6C02F0020277
:1006C0000092009A9A6C42F001029A649B6C03F0CB
:1006D00001030193019B002205210C2001F0FEFA89
:1006E0000C2001F00BFB364DE86800220521C0F319
:1006F0000220FFF70BFF0001C0B2324C84F80D035B
:100700004FF400532360E86800220521C0F3022063
:10071000FFF7FCFE0001C0B284F80E034FF48043E3
:100720002360E86800220521C0F30220FFF7EEFEF7
:100730000001C0B284F80F034FF400432360E8685F
:1007400000220521C0F30220FFF7E0FE0001C0B245
:1007500084F810034FF480332360E86800220521F9
:10076000C0F30220FFF7D2FE0001C0B284F81103EB
:100770004FF400332360002205213B2001F0AEFA44
:100780003B2001F0BBFA002205213C2001F0A6FA33
:100790003C2001F0B3FA00220521442001F09EFA2A
:1007A000442001F0ABFA00220521452001F096FA21
:1007B000452001F0A3FA03B030BD00BF0010024095
:1007C00000ED00E000E100E008B5012006F065FB67
:1007D000FBE770B50C461646002504E014F8010B43
:1007E000FFF7B3FE0135B542F8DB304670BD0000BF
:1007F00008B50268034B9A4200D008BD01F0F4F935
:10080000FBE700BF0010004072B6FEE708B51148D4
:10081000114B0360114B4360002383600122C260CF
:10082000036143618361C361036201F084FD50B9D8
:100830000021084802F001F938B90021054802F00A
:100840002AF920B908BDFFF7DFFFFFF7DDFFFFF74B
:10085000DBFF00BFCC09002000540040EC9C90104E
:1008600010B5A6B000211F912091219122912391D2
:100870002491259119911A911B911C911D911E9102
:100880005C2202A808F0C4FC0123029302A802F033
:10089000F1FF002840F0B9805F4B1A6E42F48042AD
:1008A0001A661A6E02F480420192019ADA6C42F0E2
:1008B0000102DA64DB6C03F001030093009B4FF448
:1008C000F053199302231A9303231B9300231C93C1
:1008D0001D9307231E9319A94FF0904005F078FA55
:1008E0004E4BD3F8A82022F470224FF4702393FAD1
:1008F000A3F3002B00F08B80B3FA83F3022101FAFB
:1009000003F31A43454BC3F8A8209A6D22F48042A2
:1009100022F010029A659A6D22F440529A659A6DFF
:1009200022F020029A659A6D22F040029A659A6D33
:1009300042F080029A659A6D22F440729A659A6D2F
:1009400022F440629A65D3F8A82022F470424FF452
:10095000704393FAA3F3002B5BD0B3FA83F3022125
:1009600001FA03F31A432D4BC3F8A8205A6C22F462
:10097000804222F0100242F010025A645A6C22F4B3
:1009800040525A645A6C22F020025A645A6C22F087
:1009900040025A645A6C42F080025A645A6C22F443
:1009A00040725A645A6C22F440625A641C4BD868F4
:1009B00000220521C0F30220FFF7A8FD0001C0B20C
:1009C000184B83F8250320225A604FF4E1331F931C
:1009D00000232093219322930C2223924FF4407200
:1009E00024922593104C1FA9204605F07FFF6368D1
:1009F00023F490436360A36823F02A03A360236871
:100A000043F00103236026B010BDFFF7FDFE202355
:100A100074E72023A3E700BF00100240000002405B
:100A200000ED00E000E100E00038014010B592B0B8
:100A300000240D940E940F94109411940C942C2275
:100A4000214601A808F0E4FB2748284B03604460D6
:100A50007F238360FF23C360046144618461C461B8
:100A600003F0F4FB002837D100238DF834308DF8E3
:100A700035308DF836301093119301220DA91A48A4
:100A800003F042FC50BB01228DF830208DF831205C
:100A90008DF8322000238DF833300CA9124803F072
:100AA00099FCE8B900238DF804308DF805308DF8F5
:100AB0000630029304930593069308930993012249
:100AC0008DF828204FF480730B9301A9064803F09A
:100AD000D3FC38B912B010BDFFF796FEFFF794FEB5
:100AE000FFF792FEFFF790FE380800200028004034
:100AF00008B50848084B0360002303714371436144
:100B000083610123036201F0FDF800B908BDFFF71E
:100B10007BFE00BF200A00200030024010B5A6B0C6
:100B200000211F91209121912291239124912591BF
:100B300019911A911B911C911D911E915C2202A882
:100B400008F066FB0423029302A802F093FE00283B
:100B500040F08180424B9A6D42F480229A659A6DF2
:100B600002F480220192019ADA6C42F00402DA6403
:100B7000DB6C03F004030093009B302319930223E2
:100B80001A9303231B9300231C931D9307231E9387
:100B900019A9344805F01CF9334BD3F8A82022F4E6
:100BA00070624FF4706393FAA3F3002B55D0B3FA3D
:100BB00083F3022101FA03F31A432B4BC3F8A82055
:100BC0001A6B22F4804222F010021A631A6B22F48C
:100BD00040521A631A6B22F020021A631A6B22F039
:100BE00040021A631A6B42F080021A631A6B22F4F5
:100BF00040721A631A6B22F440621A631B4BD86866
:100C000000220521C0F30220FFF780FC0001C0B2E2
:100C1000174B83F8270380225A604FF4E1331F9368
:100C200000232093219322930C2223922493259333
:100C3000104C1FA9204605F059FE636823F4904329
:100C40006360A36823F02A03A360236843F00103D1
:100C5000236026B010BDFFF7D7FD2023A9E700BF12
:100C600000100240000800480000024000ED00E0D3
:100C700000E100E00048004008B50C480C4B036060
:100C80000123436000238360C36003614FF6FF725A
:100C90004261036243624FF400028262C3620363F3
:100CA00001F026FF00B908BDFFF7AEFD5C0800208B
:100CB0000094004008B51148114B0360114B43608C
:100CC000002383600122C260036143618361C361C9
:100CD000036201F030FB50B90021084801F0ADFE7D
:100CE00038B90021054801F0D6FE20B908BDFFF74C
:100CF0008BFDFFF789FDFFF787FD00BF7809002016
:100D000000580040EC9C901008B51148114B03604E
:100D1000114B4360002383600122C2600361436181
:100D20008361C361036201F006FB50B900210848EA
:100D300001F083FE38B90021054801F0ACFE20B96E
:100D400008BDFFF761FDFFF75FFDFFF75DFD00BF29
:100D500024090020005C0040EC9C901010B5A6B067
:100D600000211F912091219122912391249125917D
:100D700019911A911B911C911D911E915C2202A840
:100D800008F046FA0223029302A802F073FD00283D
:100D900040F0C480644B9A6D42F400329A659A6DBB
:100DA00002F400320192019ADA6C42F00102DA6434
:100DB000DB6C03F001030093009B0C2319930223C7
:100DC0001A9303231B9300231C931D9307231E9345
:100DD00019A94FF0904004F0FBFF544BD3F8A82022
:100DE00022F470024FF4700393FAA3F3002B00F087
:100DF0009780B3FA83F3022101FA03F31A434B4BB2
:100E0000C3F8A820DA6E22F4804222F01002DA66DB
:100E1000DA6E22F44052DA66DA6E22F02002DA66E6
:100E2000DA6E22F04002DA66DA6E42F08002DA66AA
:100E3000DA6E22F44072DA66DA6E22F44062DA6622
:100E4000D3F8A82022F070624FF0706393FAA3F3F6
:100E5000002B67D0B3FA83F3022101FA03F31A439C
:100E6000324BC3F8A820D3F8802022F4804222F02D
:100E7000100242F01002C3F88020D3F8802022F440
:100E80004052C3F88020D3F8802022F02002C3F81B
:100E90008020D3F8802022F04002C3F88020D3F8CD
:100EA000802042F08002C3F88020D3F8802022F412
:100EB0004072C3F88020D3F8802022F44062C3F847
:100EC00080201B4BD86800220521C0F30220FFF7C9
:100ED0001DFB0001C0B2174B83F8260340225A6065
:100EE0004FF4E1331F9300232093219322930C228C
:100EF000239224932593104C1FA9204605F0F6FC5D
:100F0000636823F490436360A36823F02A03A3601B
:100F1000236843F00103236026B010BDFFF774FC83
:100F2000202368E7202397E70010024000000240DA
:100F300000ED00E000E100E00044004008B50F488B
:100F40000F4B03604FF482734360002383604FF4C0
:100F50004072C260036143614FF480228261C361C9
:100F60000362436283620722C2620363082343630E
:100F700004F0E6F900B908BDFFF746FCC006002002
:100F80000030014008B50F480F4B03604FF48273E7
:100F90004360002383604FF44072C2600361436189
:100FA0004FF480228261C36103624362836207223D
:100FB000C26203630823436304F0C2F900B908BDA9
:100FC000FFF722FC5C0600200038004010B59AB004
:100FD0000024169417941894199413941494159447
:100FE0000C940D940E940F941094119412942C223E
:100FF000214601A808F00CF92C482D4B03604460F1
:1010000084604FF6FF73C36004614461846104F03F
:1010100065FC00283ED14FF48053169316A923484F
:1010200004F040FD002837D1204804F087FC002858
:1010300034D1002313931493159313A91B4804F080
:10104000B1FD00282CD100220C920D920E920F922D
:101050001092119212920CA9144804F0D9FC08BB0A
:101060000023019302930393049305934FF40052DA
:101070000692079308934FF0007209920A930B931C
:1010800001A90A4804F0C6FD70B9084800F09CFBAD
:101090001AB010BDFFF7B8FBFFF7B6FBFFF7B4FBC4
:1010A000FFF7B2FBFFF7B0FBFFF7AEFB1006002027
:1010B000002C014000B597B04422002105A808F09B
:1010C000A7F80023009301930293039304934FF432
:1010D000007001F073FD38BB3823059301230E9394
:1010E0000A930B9300220C9260220D9202220F921F
:1010F000109311932823129307231393149215929C
:1011000005A801F045FE88B90F230093032301933E
:1011100000230293039304930421684602F06EF9BE
:1011200030B917B05DF804FBFFF76EFBFFF76CFBFF
:10113000FFF76AFB08B52E4B1B680021986807F083
:1011400045FF00F042FDFFF7B5FF2A4B9A6D42F0D4
:1011500004029A659A6D42F002029A650022042107
:101160000A2005F0A8FE244B1860FFF72FFAFFF7BE
:101170009DFAFFF74BFBFFF773FBFFF757FCFFF7F9
:1011800013FAFFF7B5FCFFF7C9FCFFF775FDFFF792
:1011900091FDFFF7B9FDFFF7E1FDFFF7CFFEFFF788
:1011A000F1FEFFF713FF05F0EFFB05F0CDFD134A4D
:1011B0000021134805F012FE124B186005F0E8FDFF
:1011C00000221149114805F009FE012220214FF0AB
:1011D000904001F062F8012208210D4801F05DF80D
:1011E0000C4807F0EBFE4FF47A7000F00FFDF7E7C4
:1011F00020000020000002407C05002024AA0008F6
:10120000C9070008C405002000AA0008FD1A00084C
:101210000008004860A9000800B583B00D4B1A6EA5
:1012200042F001021A661A6E02F001020092009A60
:101230009A6D42F080529A659B6D03F08053019342
:10124000019B00220F216FF0010000F047FD03B069
:101250005DF804FB001002400268094B9A4200D07E
:10126000704782B0A3F500539A6C42F480529A649E
:101270009B6C03F480530193019B02B0704700BF45
:101280000030024070B5A2B0044600211D911E91AD
:101290001F91209121915C2206A807F0B9FF2368D5
:1012A000624A934208D0624A934268D0614A9342AC
:1012B00000F0918022B070BD4023069306A802F092
:1012C000D9FA002852D15C4EF36C43F00203F36468
:1012D000F36C03F002030093009B4FF410731D9313
:1012E00012231E9300251F9503232093042321938B
:1012F0001DA9524800F0E6FEB36D43F40013B36538
:10130000B36D03F400130193019B4D484D4B0360F3
:10131000052343608560C560802303614561856165
:10132000C561056200F084FD18BB454BE3639C6218
:101330004548464B03600523436010238360002328
:10134000C3608022026143618361C361036200F074
:101350006FFD88B93C4BA3639C62002205212020CD
:1013600000F0BCFC202000F0C9FCA3E7FFF74CFA1A
:10137000A9E7FFF749FAD8E7FFF746FAEAE780233B
:10138000069306A802F076FA10BB2B4CE36C43F0F0
:101390000203E364E36C03F002030293029B4FF445
:1013A00040631D9312231E9300231F930323209356
:1013B000042321931DA9214800F084FEA36D43F46A
:1013C0008003A365A36D03F480030393039B71E77C
:1013D000FFF71AFAD9E74FF48073069306A802F0D4
:1013E00049FA00BB144CE36C43F00403E364E36C80
:1013F00003F004030493049B03231D9312221E9203
:1014000000221F922093042321931DA9104800F06D
:1014100059FEA36D43F40003A365A36D03F4000319
:101420000593059B46E7FFF7EFF9DBE70054004023
:1014300000580040005C00400010024000040048DA
:10144000DC0800206C040240940800208004024064
:101450000008004810B59EB00446002119911A9169
:101460001B911C911D915C2202A807F0D1FE2268FD
:10147000174B9A4201D01EB010BD4FF48063029307
:1014800002A802F0F7F9F8B9124BDA6D42F0200227
:10149000DA65DA6D02F020020092009ADA6C42F00E
:1014A0000202DA64DB6C03F002030193019B022366
:1014B00019931A9300231B931C930E231D9319A9B0
:1014C000054800F0FFFDD6E7FFF79EF9DCE700BF17
:1014D00000940040001002400004004810B598B08D
:1014E00004465C22002101A807F092FE22680D4B01
:1014F0009A4201D018B010BD4FF4003301934FF45D
:101500000073179301A802F0B5F938B9064AD2F86A
:10151000903043F40043C2F89030EBE7FFF774F9E2
:10152000F4E700BF00280040001002402DE9F04120
:10153000A0B0044600211B911C911D911E911F918A
:101540005C2204A807F064FE2268444B9A4202D051
:1015500020B0BDE8F0814FF40023049304A802F00A
:1015600089F9002870D13E4B1A6E42F480621A66E7
:101570001A6E02F480620192019ADA6C42F004025F
:10158000DA64DA6C02F004020292029ADA6C42F037
:101590000802DA64DB6C03F008030393039B4FF447
:1015A000F8531B934FF00208CDF8708000251D956D
:1015B00003271E970C261F961BA92A4800F082FDC0
:1015C00004231B93CDF870801D951E971F961BA9B1
:1015D000254800F077FD2548254B0360072343602D
:1015E0008560C560802303614FF4007343614FF44D
:1015F00000638361C561056200F01AFC38BB1B4BB8
:1016000023649C621B481C4B036007234360102328
:1016100083600023C360802202614FF40072426144
:101620004FF400628261C361036200F001FC88B97B
:10163000104BE3639C6200220521312000F04EFB39
:10164000312000F05BFB83E7FFF7DEF88BE7FFF765
:10165000DBF8D4E7FFF7D8F8EAE700BF002801403D
:101660000010024000080048000C00486C070020F1
:1016700044040240240700205804024070B58AB098
:1016800000230593069307930893099303682F4A51
:10169000934204D02E4A934236D00AB070BD2D4BEF
:1016A0001A6E42F480521A661A6E02F48052009248
:1016B000009ADA6C42F00102DA64DA6C02F001029C
:1016C0000192019ADA6C42F00202DA64DB6C03F0F8
:1016D00002030293029B122305930226069603251A
:1016E00008950524099405A94FF0904000F0EAFC04
:1016F000302305930696002307930895099405A9BE
:10170000154800F0DFFCC8E7124B9A6D42F48042A6
:101710009A659A6D02F480420392039ADA6C42F061
:101720000202DA64DB6C03F002030493049B4FF4BF
:10173000704305930223069303230893052309931B
:1017400005A9054800F0BEFCA7E700BF0030014036
:101750000038004000100240000400480268174BA7
:101760009A4200D0704710B582B0044603F5644336
:101770001A6E42F400621A661B6E03F40063019352
:10178000019B0F480F4B03600723436000238360D6
:10179000C360802202614FF4807242614FF4806224
:1017A0008261C361036200F043FB20B9044B6362B2
:1017B0009C6202B010BDFFF727F8F7E7002C01404C
:1017C000C80500201C00024000B587B0002301932B
:1017D000029303930493059302680F4B9A4202D03D
:1017E00007B05DF804FB03F56443DA6C42F00102D4
:1017F000DA64DB6C03F001030093009B4FF4807309
:101800000193022302930123059301A94FF0904015
:1018100000F058FCE4E700BF002C014030B589B06F
:101820000446214B9A6D42F010029A659B6D03F0BD
:1018300010030193019B02A903A801F0CDFE069BB2
:10184000CBB901F0A5FE0346184AA2FB03239B0C6B
:10185000013B1748174A026040F2E732C26043601A
:10186000002303618360836104F038F8054630B1DA
:10187000284609B030BD01F08BFE4300E4E70C4878
:1018800003F0FCFE05460028F2D1362000F036FABF
:101890000F2C01D90125EBE700222146362000F06C
:1018A0001DFA054B1C60E3E70010024083DE1B437A
:1018B000440A00200010004008000020FEE7FEE778
:1018C000FEE7FEE7FEE7704708B5024800F095FB2B
:1018D00008BD00BFC80500207047704708B5024822
:1018E00000F026F908BD00BF00AA00087047704745
:1018F00008B5024801F05FF808BD00BFCC09002020
:1019000008B5024800F048F908BD00BF00AA000869
:101910007047704708B5024803F02EFC08BD00BFB1
:10192000B407002008B5024803F0E3FE08BD00BF7D
:10193000440A002008B5024800F05FFB08BD00BF64
:101940006C07002008B5024800F057FB08BD00BF37
:101950002407002008B5024800F04FFB08BD00BF77
:10196000DC08002008B5024800F047FB08BD00BFB6
:101970009408002070B50C461646002506E0AFF32B
:101980000080214601F8010B01350C46B542F6DB1B
:10199000304670BD4FF0FF3070474FF400534B603E
:1019A00000207047012070470020704710B50346A3
:1019B0000C4A0D490D48006840B10C4800680344CA
:1019C000521A934206D8094A136010BD0748084CC2
:1019D0000460F2E707F0F0FC0C2303604FF0FF30E7
:1019E000F3E700BF0000012000080000900A00207B
:1019F00018290020034AD2F8883043F47003C2F853
:101A00008830704700ED00E0DFF834D0FFF7F2FFD8
:101A10000C480D490D4A002302E0D458C450043349
:101A2000C4188C42F9D30A4A0A4C002301E013601F
:101A30000432A242FBD307F0C5FCFFF77BFBFEE7B5
:101A4000000001200000002060050020C0AA00085E
:101A50006005002014290020FEE709E033B903687F
:101A6000DB6913F08003F9D00123F7E7013A013174
:101A700032B1036891F800C0A3F828C0EFE733B98A
:101A80000368DB6913F04003F9D00123F7E77047DF
:101A900038B54368826812498A5C13445C68A4B212
:101AA000C4F14004016A4A6CA24208D0054607D23C
:101AB0001144A21A0431FFF7D0FF2B6A5C6438BDD1
:101AC0001144C2F140020431FFF7C7FF002CF4D0EB
:101AD000296A224604312846FFF7BFFFEDE700BF21
:101AE00090AA000838B505460C460846FEF708FCE3
:101AF000024621462846FFF7B0FF38BD10B582B038
:101B000004460949FFF7EEFF08492046FFF7EAFFC0
:101B1000206A4FF0FF33002201A9006805F058FA4F
:101B20002046FFF7B5FFF3E77CA90008C8A9000825
:101B300010B582B00446012301934068A368154A9A
:101B4000D35CC35813F0040F0CD0A369984748B175
:101B5000236960689847206A00231A4601A9006833
:101B600005F0F4F96068A3680A4AD35CC35813F01F
:101B7000020F0CD06369984748B1E36860689847E2
:101B8000206A00231A4601A9006805F0DFF902B0B7
:101B900010BD00BF90AA000800B583B001230193D7
:101BA00003681A6812F0100F0CD0DA6912F0100FE7
:101BB00008D010221A62006A00231A4601A90068A0
:101BC00005F0C4F903B05DF804FB10B5032000F084
:101BD00073F80F20FFF722FE10B10124204610BD3C
:101BE0000446FFF719FBF9E7034B1B78034A11681A
:101BF0000B441360704700BF04000020940A0020CB
:101C0000014B1868704700BF940A002038B504469D
:101C1000FFF7F6FF0546B4F1FF3F02D0044B1B78F7
:101C20001C44FFF7EDFF401BA042FAD338BD00BFB4
:101C300004000020002807DB00F01F0240090123F8
:101C40009340024A42F82030704700BF00E100E0B4
:101C5000002808DB0901C9B200F1604000F56140CD
:101C600080F80013704700F00F000901C9B2014B62
:101C70001954704714ED00E000B500F00700C0F102
:101C8000070CBCF1040F28BF4FF0040C031D062BFA
:101C90000FD9C31E4FF0FF3E0EFA0CF021EA0001EF
:101CA00099400EFA03FE22EA0E0241EA02005DF8B4
:101CB00004FB0023EEE70000074AD36823F4E06347
:101CC0001B041B0C000200F4E060034343F0BF63FD
:101CD00043F40033D360704700ED00E010B50446D4
:101CE000054BD868C0F30220FFF7C6FF0146204627
:101CF000FFF7AEFF10BD00BF00ED00E008B5FFF735
:101D000099FF08BD002838D010B50446437F1BB3A7
:101D10000223637723791BBB2368194A5A6122681F
:101D2000936823F018039360637913BB23684FF023
:101D3000FF321A612268936823F0600361690B43E4
:101D400093602268936823F08003A1690B4393603A
:101D500001236377002010BD0377FFF77DFAD7E7F3
:101D6000E268A168204600F00DF80028DCD00120D0
:101D7000F1E7236822691A61DCE70120704700BFA0
:101D8000B71DC10411F0010F30D010B41F231C4641
:101D9000013B34B103F01F0C21FA0CFC1CF0010FC5
:101DA000F5D0182A24D8DFE802F00F2323232323B9
:101DB00023231D2323232323232319232323232303
:101DC00023230D00062B17D80368596101688B681F
:101DD00023F0180313438B6000200AE0072BF3D98C
:101DE000012006E00F2BEFD9012002E0012070470F
:101DF00001205DF8044B70470120FAE730B4446CD1
:101E000004F01C0C012404FA0CF4056C6C600468EA
:101E100063608368102B05D0036899600368DA60FB
:101E200030BC704703689A600368D960F8E7000027
:101E3000002871D010B403460168384A914248D84E
:101E4000374A0A443748A0FB0202120992005A643A
:101E5000354A1A64022283F8252008686FF30E10B1
:101E60009A68DC6822431C6922435C6922439C69AE
:101E70002243DC6922431C6A224302430A609A68B7
:101E8000B2F5804F1BD0196C274A91422CD0264ABC
:101E9000D2F8A814586C00F01C0C0F2000FA0CF0BB
:101EA00021EA0001C2F8A814D2F8A81458685C6CA2
:101EB00004F01C0C00FA0CF00143C2F8A814002036
:101EC000D863012283F8252083F824005DF8044BB1
:101ED0007047164A0A441348A0FB020212099200F6
:101EE0005A64134A1A64B5E7D2F8A810586C00F087
:101EF0001C0C0F2000FA0CF021EA0001C2F8A81017
:101F0000D2F8A81058685C6C04F01C0C00FA0CF0B5
:101F10000143C2F8A810D2E701207047070402402D
:101F2000F8FFFDBFCDCCCCCC00000240F8FBFDBFDC
:101F30000004024038B5044690F82400012832D04D
:101F4000012084F8240094F82500C0B2012804D0B0
:101F5000002384F82430022038BD022084F82500B4
:101F60000020E0632568286820F0010028602046F2
:101F7000FFF744FF236B5BB12268136843F00E0345
:101F800013602268136843F0010313600020E3E745
:101F90002268136823F0040313602268136843F077
:101FA0000A031360EDE70220D6E708B590F8253064
:101FB000DBB2022B03D00423C363012008BD0268F7
:101FC000136823F00E0313600268136823F0010303
:101FD0001360436C03F01C03016C012202FA03F34B
:101FE0004B6080F82520002380F82430836B13B1E8
:101FF00098470020E2E70020E0E738B5036C196855
:1020000004682568436C03F01C0304229A400A42CA
:1020100015D015F0040F12D0236813F0200F03D150
:10202000236823F004032360436C03F01C02016C5B
:10203000042393404B60036B03B1984738BD0222E1
:102040009A400A421CD015F0020F19D0236813F0F1
:10205000200F06D1236823F00A032360012380F8B0
:102060002530436C03F01C02016C022393404B604B
:10207000002380F82430C36A002BDFD09847DDE7C7
:10208000082202FA03F30B42D8D015F0080FD5D07E
:10209000236823F00E032360436C03F01C03016CE0
:1020A000012202FA03F34B60C26380F8252000236B
:1020B00080F82430436B002BC0D09847BEE790F8DF
:1020C00025007047F0B583B0002362E085685E00AC
:1020D0000324B44025EA0405CC68B4402C43846052
:1020E000456825EA0C054C68C4F300149C402C4359
:1020F00044605FE0DD08083550F8254003F0070C28
:102100004FEA8C0C4FF00F0E0EFA0CFE24EA0E0E66
:102110000C6904FA0CF444EA0E0440F8254060E02F
:10212000042400E0002404FA0EF42C430CF1020C09
:10213000524D45F82C40524CA568D44325EA02067E
:102140004F6817F4801F01D042EA05064C4DAE607F
:10215000ED6804EA05064F6817F4001F01D042EA53
:102160000506474DEE606D6804EA05064F6817F4F2
:10217000003F01D042EA0506414D6E602D682C40BB
:102180004E6816F4803F01D042EA05043C4A1460D0
:1021900001330A6832FA03F46ED04FF0010C0CFAE6
:1021A00003FC1CEA0202F3D04C6804F00304013C77
:1021B000012C8BD94C6804F00304032C0CD0C468A8
:1021C0005D004FF0030C0CFA05FC24EA0C0C8C6843
:1021D000AC4044EA0C04C4604C6804F00304022CD4
:1021E00088D004684FEA430E4FF0030C0CFA0EFC43
:1021F00024EA0C0C4C6804F0030404FA0EF444EADC
:102200000C0404604C6814F4403FC1D01D4C256E92
:1022100045F001052566246E04F001040194019C3B
:102220004FEA930C0CF10205144C54F8255003F0BE
:10223000030E4FEA8E0E0F2404FA0EF425EA04056D
:10224000B0F1904F3FF46EAF0F4CA0420ED004F5AA
:102250008064A0420CD004F58064A0420AD004F54A
:102260008064A0423FF45CAF07245CE701245AE796
:10227000022458E7032456E703B0F0BD00000140F4
:1022800000040140001002400004004803691942A4
:1022900001D001207047002070470AB1816170476A
:1022A0008162704703689A6912F0020F01D0002220
:1022B0009A6203689A6912F0010F03D19A6942F099
:1022C00001029A61704711F0010F09D090F8413076
:1022D00003F02803282B01D0F22302E0422300E080
:1022E000002311F0020F09D043F0440C90F8412074
:1022F00002F02802282A10D043F0F40311F4004F12
:102300000DD110290ED020290FD0402910D00168FE
:102310000A6822EA03030B6070476346EEE743F066
:10232000B803EEE743F09003EDE743F02003ECE75A
:1023300043F04003EBE700285FD010B5044690F867
:102340004130002B48D0242384F8413022681368A0
:1023500023F0010313606368226823F07063136144
:102360002268936823F400439360E368012B38D01C
:10237000A368226843F404439360E368022B36D0D9
:102380002268536823F4006353602268536843F063
:10239000007343F4004353602268D36823F400437E
:1023A000D360236962691343A169226843EA012368
:1023B000D360E369216A22680B43136022681368C3
:1023C00043F00103136000206064202384F841304F
:1023D000206384F8420010BD80F84030FEF752FFC1
:1023E000B1E7A368226843F400439360C5E722681D
:1023F000536843F400635360C7E701207047704798
:10240000704710B5044603681A68002180F842102E
:1024100012F4804F0ED01A6822F480421A6094F8A9
:102420004130DBB2292B0DD094F84130DBB22A2B9E
:1024300018D010BD12F4004FF1D01A6822F40042F7
:102440001A60ECE7282384F841302123236301211B
:102450002046FFF738FF002384F840302046FFF77E
:10246000CEFFE6E7282384F84130222323630221AC
:102470002046FFF728FF002384F840302046FFF76E
:10248000BFFFD6E77047F8B5044690F8413003F037
:102490002803282B06D003680822DA61002380F87D
:1024A0004030F8BD03689E69C6F300469A69120C75
:1024B00002F0FE059A68C2F30902DF6807F0FE0722
:1024C000C168022922D185EAD21515F0060F10D174
:1024D000816C01318164816C0229E2D10021816427
:1024E0000820D86184F8401031462046FFF7CAFF23
:1024F000D7E74FF40041FFF7E6FE002384F84030B1
:102500003A4631462046FFF7BDFFCAE74FF4004187
:10251000FFF7D9FE002384F840302A463146204692
:10252000FFF7B0FFBDE7704710B50446174BC36215
:1025300000230363202280F8412080F84230436367
:1025400011F0040F13D003685A6A436A1A70436A81
:1025500001334362038D53B1013B0385438D9BB22D
:10256000013B9BB24385436C43F00403436448F250
:1025700003012046FFF7A7FE23681022DA6100233B
:1025800084F840302046FFF7CEFF10BD0000FFFF6B
:102590007047704708B590F84130DBB2602B06D029
:1025A0000023036380F84030FFF7F2FF08BD2023CB
:1025B00080F841300023036380F84030FFF7E9FFE3
:1025C000F4E7000010B5044690F84130002280F88E
:1025D00042204548E0626285626C0A436264283B9F
:1025E000DBB2022B19D803212046FFF76CFE28230B
:1025F00084F841303D4B6363236BA26B1AB1112BFE
:1026000030D0212B2ED0E26B1AB1122B4BD0222BC3
:1026100049D02046FFF7BEFF10BD48F20301204617
:10262000FFF751FE2046FFF73DFE94F84130DBB244
:10263000602B14D0202384F8413023689A6912F06B
:10264000200F0CD09A6912F0100F05D01022DA6119
:10265000636C43F00403636423682022DA6100237F
:102660006363C9E723681A6812F4804F03D01A68BD
:1026700022F480421A60A06BFFF721FD01280ED0E2
:10268000A36B1B4A9A63002384F84030A06BFFF7CA
:102690008CFC0028C0D0A06B836B9847BCE7204619
:1026A000FFF778FFB8E723681A6812F4004F03D0E9
:1026B0001A6822F400421A60E06BFFF700FD01285F
:1026C0000ED0E36B0A4A9A63002384F84030E06B33
:1026D000FFF76BFC00289FD0E06B836B98479BE76C
:1026E0002046FFF757FF97E70000FFFF6928000823
:1026F000212A000870B504460D460268166890F855
:1027000041302021D161213B092B0CD8DFE803F0B7
:1027100005630B0B0B0B0B6A056348F20101FFF716
:10272000D2FD212323632268536843F4004353609E
:102730002268536823F0FF7323F48B3323F4FF7371
:1027400023F0010353602046FFF7ACFD16F4804FE1
:102750004FD02268136823F480431360A36B1BB12E
:102760001B685B689BB2638515F0040F11D025F0E0
:10277000040523685A6A636A1A70636A01336362E4
:10278000238D33B1013B2385638D9BB2013B9BB20B
:102790006385638D9BB21BB1636C43F00403636478
:1027A000002384F842306363636C002B31D1E36A09
:1027B00013F5803F3BD194F84130DBB2222B46D059
:1027C000202384F841300023236384F840302046DE
:1027D000FFF715FE3AE048F20201FFF774FD2223ED
:1027E0002363A0E748F20301FFF76DFD0023236395
:1027F00099E716F4004FB7D02268136823F400431A
:102800001360E36B002BAFD01B685B689BB26385E2
:10281000AAE7616C2046FFF7D5FE94F84130DBB2A1
:10282000282B13D129462046FFF77EFE0EE02046D6
:10283000FFF7E7FD0B4BE362202384F841300023D0
:10284000236384F840302046FFF76DFE70BD2023DF
:1028500084F841300023236384F840302046FFF79A
:10286000CFFDF3E70000FFFFF8B5C76A90F84030EE
:10287000012B00F09E8004460D461646012380F889
:10288000403011F0200F02D012F0200F19D115F0B6
:10289000100F3ED016F0100F3BD0638D9BB243BBA0
:1028A00094F84130DBB2282B0ED094F84130DBB2E3
:1028B000292B11D023681022DA61002084F840000F
:1028C000F8BDFFF717FFE2E7B7F1007FEDD129462A
:1028D0002046FFF729FEF0E717F5803FEAD023688E
:1028E0001022DA612046FFF7DDFC2046FFF789FD64
:1028F000E3E723681022DA61636C43F00403636446
:1029000017B1B7F1807FD8D1616C2046FFF75AFE2E
:10291000D3E715F0040F1FD016F0040F1CD0638D01
:102920009BB273B123685A6A636A1A70636A01338F
:102930006362238D013B2385638D9BB2013B9BB278
:102940006385638D9BB2002BB7D117F5803FB4D060
:102950002046FFF756FDB0E715F0080F02D016F03D
:10296000080F18D115F0020FA7D016F0020FA4D04F
:10297000638D9BB2A3B1626A236812789A62636A1C
:1029800001336362638D9BB2013B9BB26385238DF0
:10299000013B238591E729462046FFF774FD8CE72C
:1029A000B7F1807F01D0002F87D12046FFF729FDA6
:1029B00083E7022084E710B502689369116813F475
:1029C000807F09D011F0800F06D0446C44F00104E0
:1029D00044644FF48074D46113F4806F0AD011F012
:1029E000800F07D0426C42F00802426402684FF444
:1029F0008064D46113F4007F0AD011F0800F07D0F7
:102A0000436C43F00203436403684FF40072DA61DD
:102A1000416C11F00B0F00D110BDFFF7D3FDFBE7A8
:102A200008B5806A836B0BB100229A63C36B0BB14C
:102A300000229A63FFF7AEFD08BD034690F84120DF
:102A4000D2B2202A23D190F84020012A21D001229D
:102A500080F84020242280F841200068026822F09B
:102A6000010202601868026822F48052026018684D
:102A700002681143016019680A6842F001020A60A5
:102A8000202283F84120002083F840007047022074
:102A9000704702207047034690F84120D2B2202AA6
:102AA00021D190F84020012A1FD0012280F8402037
:102AB000242280F841200068026822F001020260AE
:102AC0001868026822F4706242EA01220260196802
:102AD0000A6842F001020A60202283F841200020A7
:102AE00083F84000704702207047022070470000C2
:102AF000002854D0F8B5044690F83630002B44D066
:102B0000022384F836302568EB686168012903D018
:102B1000A26AB2F5000F01D123F01E0362694FF6DD
:102B2000FF70824203D023F4604323F0C0031D48AA
:102B30001840A3680B43266A3343666A3343A66A88
:102B40003343034319B9E069276938430343012933
:102B500002D0B6F5000F03D1E168206901430B43B1
:102B60004FF6FF718A4204D0A1690A43E1690A4322
:102B70001343EB6023680C4A93420BD0E26A1A625B
:102B8000012384F836300020F8BD80F83530FEF798
:102B900061FCB5E7E26A216B0A431A62F0E70120A3
:102BA000704700BFFEF119FF007C0040024B18681F
:102BB00000F4C060704700BF00700040B0F5007FB7
:102BC0000FD01F4B1B6803F4C063B3F5806F34D084
:102BD0001B4A136823F4C06343F48063136000202E
:102BE0007047174B1B6803F4C063B3F5007F20D018
:102BF000134A136823F4C06343F400731360114B4A
:102C00001B68322202FB03F30F4AA2FB03239B0C37
:102C1000013300E0013B0A4A526912F4806F01D08F
:102C2000002BF7D1064B5B6913F4806F03D10020B2
:102C3000704700207047032070470020704700BF96
:102C4000007000400000002083DE1B4330B583B0DD
:102C50000446204B9B6D13F0805F0BD0FFF7A6FF5F
:102C6000B0F5007F17D0802C1FD82DD0702C2DD020
:102C700000211BE0174DAB6D43F08053AB65AB6D8E
:102C800003F080530193019BFFF790FFAB6D23F09E
:102C90008053AB65E4E7802C03D9A02C03D9022133
:102CA00004E0002102E0012100E003210A4A136848
:102CB00023F007030B431360136803F007038B42F1
:102CC00006D1002003B030BD0221EFE70121EDE77E
:102CD0000120F7E70010024000200240284A9368D4
:102CE000D26802F0030213F00C030AD00C2B06D0BA
:102CF000042B1FD0082B20D00020024610E0012A10
:102D0000F6D11F4A126812F0080F0CD11C4AD2F8F3
:102D10009420C2F303221B4951F8222043B1002022
:102D20000C2B0DD07047164A1268C2F30312F2E75B
:102D30001046F5E714480022F2E714480022EFE7B6
:102D40000F4BDB6803F00303022B03D0032B02D1EC
:102D50000E4A00E00C4A0A49CB68C3F30213013360
:102D6000C868C0F3062002FB00F0B0FBF3F0CB68AC
:102D7000C3F3416301335B00B0FBF3F0D2E700BF64
:102D80000010024048AA00080024F40000127A0053
:102D9000002800F01C83F0B583B00446964B9D6874
:102DA00005F00C05DE6806F00306036813F0100F4B
:102DB0005AD0E5B10C2D18D0A369002B00F0BB80D0
:102DC0008D4A136843F001031360FEF719FF0746AD
:102DD000894B1B6813F0020F40F09A80FEF710FF3A
:102DE000C01B0228F4D90320FCE2012EE4D1824B5F
:102DF0001B6813F0020F03D0A369002B00F0E982D7
:102E0000206A7D4B1B6813F0080F5BD07A4B1B6860
:102E100003F0F00398425CD8774B1A6842F008023E
:102E20001A601A6822F0F002216A0A431A605A688E
:102E300022F47F42E16942EA01225A60002D60D00B
:102E4000FFF74CFF6C4B9B68C3F303136B4AD35CD7
:102E500003F01F03D8406A4B18606A4B1868FEF7EE
:102E6000DDFC002840F0BE82236813F0010F00F063
:102E70008180082D75D00C2D71D06368B3F5803F2B
:102E800000F09780B3F5A02F00F099805A4B1A6894
:102E900022F480321A601A6822F480221A60636871
:102EA000002B00F09980FEF7ABFE0746524B1B68E3
:102EB00013F4003F5ED1FEF7A3FEC01B6428F5D9D2
:102EC00003208FE24C4BD3F894301B0903F0F0033E
:102ED000A0E7FFF7BBFE002840F07D82464B1A6852
:102EE00042F008021A601A6822F0F002216A0A43CE
:102EF0001A605A6822F47F42E16942EA01225A606C
:102F00009EE7206AFFF7A2FE002899D0012069E21F
:102F1000394B1A6842F008021A601A6822F0F0026F
:102F2000216A0A431A605A6822F47F42E16942EA40
:102F300001225A6098E7304A136823F001031360B6
:102F4000FEF75EFE07462C4B1B6813F0020F8BD07A
:102F5000FEF756FEC01B0228F5D9032042E2032EDD
:102F60008BD1254B1B6813F4003F03D06368002B03
:102F700000F03382236813F0020F58D0042D45D09F
:102F80000C2D41D0E368002B77D01B4A136843F423
:102F900080731360FEF734FE0646174B1B6813F46C
:102FA000806F61D1FEF72CFE801B0228F5D903202B
:102FB00018E2114A136843F4803313606FE703F19A
:102FC0008043A3F53C331A6842F480221A601A68E1
:102FD00042F480321A6062E7FEF712FE0746064BA3
:102FE0001B6813F4003FC5D0FEF70AFEC01B64281F
:102FF000F5D90320F6E100BF0010024080AA0008C6
:103000000000002008000020022EBBD1A44B1B684A
:1030100013F4806F03D0E368002B00F0E081A04A36
:10302000536823F0F853216943EA0163536023682E
:1030300013F0080F4CD063699BB3994AD2F89430CF
:1030400043F00103C2F89430FEF7DAFD0646944BD4
:10305000D3F8943013F0020F3AD1FEF7D1FD801B64
:103060000228F4D90320BDE18D4A536823F0F853B8
:10307000216943EA01635360D9E7894A136823F45D
:1030800080731360FEF7BCFD0646854B1B6813F486
:10309000806FCCD0FEF7B4FD801B0228F5D9032049
:1030A000A0E17F4AD2F8943023F00103C2F89430B3
:1030B000FEF7A6FD06467A4BD3F8943013F0020FC4
:1030C00006D0FEF79DFD801B0228F4D9032089E17C
:1030D000236813F0040F7AD0714B9B6D13F0805F5F
:1030E00036D16F4B9A6D42F080529A659B6D03F01A
:1030F00080530193019B01266A4B1B6813F4807F68
:1031000028D0A368012B39D0052B3FD0644BD3F8CE
:10311000902022F00102C3F89020D3F8902022F0F2
:103120000402C3F89020A368002B3DD0FEF768FD91
:1031300007465B4BD3F8903013F0020F46D1FEF7F1
:103140005FFDC01B41F288339842F2D9032049E168
:103150000026D1E7534A136843F480731360FEF7E7
:103160004FFD07464F4B1B6813F4807FC9D1FEF714
:1031700047FDC01B0228F5D9032033E1484AD2F8A5
:10318000903043F00103C2F89030CCE7444BD3F8C1
:10319000902042F00402C3F89020D3F8902042F02F
:1031A0000102C3F89020BEE7FEF72AFD07463C4B1C
:1031B000D3F8903013F0020F08D0FEF721FDC01BAA
:1031C00041F288339842F2D903200BE1E6B9236833
:1031D00013F0200F35D0636AE3B1314AD2F898304A
:1031E00043F00103C2F89830FEF70AFD06462C4B67
:1031F000D3F8983013F0020F23D1FEF701FD801BA6
:103200000228F4D90320EDE0254A936D23F0805382
:103210009365DCE7224AD2F8983023F00103C2F824
:103220009830FEF7EDFC06461D4BD3F8983013F0AE
:10323000020F06D0FEF7E4FC801B0228F4D903201D
:10324000D0E0A36A002B00F0CC80022B17D00C2D0D
:1032500000F0CC80124A136823F080731360FEF7ED
:10326000CFFC04460E4B1B6813F0007F00F0A880D3
:10327000FEF7C6FC001B0228F4D90320B2E0084B7D
:10328000DB6803F00301E26A91420DD00C2D00F0DF
:10329000AB80034B1B6813F0806F2FD00120A1E09F
:1032A000001002400070004003F07002216B0139F1
:1032B000B2EB011FEAD103F4FE42616BB2EB012FC6
:1032C000E4D103F07842A16BB2EBC16FDED103F41D
:1032D000C001E26B5208013AB1EB425FD6D103F074
:1032E000C063226C5208013AB3EB426FCED1404B1F
:1032F0001B6813F0007F49D0002073E03C4A13683C
:1033000023F080731360FEF77BFC0546384B1B6887
:1033100013F0007F06D0FEF773FC401B0228F5D99E
:1033200003205FE0324AD36832491940E36A206BD8
:10333000013843EA0013606B43EA0023E06B400866
:10334000013843EA4053206C4008013843EA4063A7
:10335000A06B43EAC0631943D160136843F08073E4
:103360001360D36843F08073D360FEF749FC0446D2
:103370001F4B1B6813F0007F06D1FEF741FC001BBA
:103380000228F5D903202DE000202BE0184B1A6805
:1033900042F080721A60DA6842F08072DA60FEF7FA
:1033A0002FFC0446124B1B6813F0007F06D1FEF77A
:1033B00027FC031B022BF5D9032013E0002011E0AA
:1033C0000B4AD1680C4B0B40D36000200AE001206F
:1033D0007047012006E0012004E0012002E0012006
:1033E00000E0002003B0F0BD0120FBE70120F9E779
:1033F000001002408C809D01FCFFEEFE002800F0D2
:10340000AF8070B50D460446594B1B6803F00703A7
:103410008B420BD2564A136823F007030B43136009
:10342000136803F007038B4240F09C80236813F07D
:10343000020F0CD0A2684F4B9B6803F0F0039A4236
:1034400005D94C498B6823F0F0031A438A6023683E
:1034500013F0010F39D06368032B09D0022B26D05B
:1034600063BB444A126812F0020F06D1012076E0D5
:10347000404A126812F0007F76D03E498A6822F0F6
:10348000030213438B60FEF7BBFB0646394B9B6878
:1034900003F00C036268B3EB820F16D0FEF7B0FBAB
:1034A000801B41F288339842F0D9032057E0314A1B
:1034B000126812F4003FE0D1012050E02D4A12685A
:1034C00012F4806FD9D1012049E0236813F0020F74
:1034D0000CD0A268274B9B6803F0F0039A4205D2F8
:1034E00024498B6823F0F0031A438A60204B1B6841
:1034F00003F00703AB420AD91D4A136823F0070300
:103500002B431360136803F00703AB422ED12368EB
:1035100013F0040F06D0174A936823F4E063E168C0
:103520000B439360236813F0080F07D0114A936888
:1035300023F46053216943EAC1039360FFF7CEFB94
:103540000C4B9B68C3F303130B4AD35C03F01F03BC
:10355000D8400A4B18600A4B1868FEF75FF970BD37
:10356000012070470120FAE70120F8E70120F6E783
:10357000002002400010024080AA00080000002045
:1035800008000020014B1868704700BF00000020B1
:1035900008B5FFF7F7FF054B9B68C3F30223044A06
:1035A000D35C03F01F03D84008BD00BF00100240E9
:1035B00078AA000808B5FFF7E5FF054B9B68C3F341
:1035C000C223044AD35C03F01F03D84008BD00BFE8
:1035D0000010024078AA00080F2303600B4B9A6882
:1035E00002F0030242609A6802F0F00282609A6878
:1035F00002F4E062C2609B68DB0803F4E0630361ED
:10360000034B1B6803F007030B6070470010024078
:1036100000200240B0F5006F2AD0002310B4B3F5AB
:10362000000F2FD0002B63D103F1804303F5043347
:103630001B6813F0006F54D02F4B1B6913F4803FAD
:103640004FD02D4CE368C3F302130133B1FBF3F009
:103650002269C2F306222369DB0E04D1236913F425
:10366000003F3CD0112302FB00F0B0FBF3F040E040
:10367000214BD3F8883003F44003B3F5400FCDD18C
:103680001E48704703F17E5303F504331B6813F0A3
:10369000007F1DD0184BDB6813F4803F18D0164C08
:1036A000E368C3F302130133B1FBF3F0E268C2F342
:1036B0000622E368DB0E04D1E36813F4003F05D073
:1036C000112302FB00F0B0FBF3F012E00723F8E750
:1036D000094B186810F480600BD0094809E00723F3
:1036E000C1E7054B186810F4806002D0044800E080
:1036F00000205DF8044B70470010024068FF1F0077
:103700000024F400F8B504460D46594BDB6813F06D
:10371000030F18D0564BDB6803F003030268934293
:1037200002D001263046F8BD002A00F09C80504BA4
:10373000DB68C3F3021301334268934201D00126D0
:10374000F0E7002619E00368022B55D0032B5AD06E
:10375000012B40F08A80464A126812F0020F5ED0B8
:103760004348C26822F073026168013943EA0113D9
:103770001343C3600026002ED4D13D4A136823F0C2
:1037800080631360FEF73CFA0746394B1B6813F061
:10379000006F05D0FEF734FAC31B022BF5D90326C0
:1037A000002EBFD1002D3CD131490B6923F0784365
:1037B00023F4FE43A068E268D20642EA00221343E3
:1037C0000B612B4A136843F080631360FEF718FA0D
:1037D0000546274B1B6813F0006F05D1FEF710FA62
:1037E000401B0228F5D90326002E9BD1204A1369DD
:1037F000A1690B43136195E71D4A126812F4806FAB
:10380000AED101268EE71A4A126812F4003FA7D102
:10381000174A126812F4802FA2D1012682E70126EE
:10382000A9E7012D0FD01248026922F0C06222F4EC
:10383000FE42A16863695B08013B5B0643EA012322
:103840001A430261BDE70A48026922F4C00222F469
:10385000FE42A16823695B08013B5B0543EA012343
:103860001A430261ADE701265CE701265AE700BF73
:10387000001002402DE9F04182B00446036813F4C1
:10388000006F26D0436CB3F5000F06D0B3F5400FA0
:103890001DD09BB1012637461DE0B34AD36843F4DF
:1038A0008033D3600027B04AD2F8883023F4400335
:1038B000616C0B43C2F8883000260CE00021043014
:1038C000FFF720FF07460028EDD0064603E000275B
:1038D000E9E700263746236813F4003F6BD0A24B7C
:1038E0009B6D13F0805F4CD19F4B9A6D42F08052DC
:1038F0009A659B6D03F080530193019B4FF0010883
:103900009A4A136843F480731360FEF779F9054609
:10391000964B1B6813F4807F05D1FEF771F9401BAD
:103920000228F5D90327002F40D18F4BD3F89030D0
:1039300013F4407315D0A26D9A4212D08A4AD2F87D
:10394000903023F44073D2F8901041F48031C2F8E3
:103950009010D2F8901021F48031C2F89010C2F883
:10396000903013F0010F0FD1002F40F0E3807E4A1A
:10397000D2F8903023F44073A16D0B43C2F890301D
:1039800015E04FF00008BBE7FEF73AF90546764B25
:10399000D3F8903013F0020FE6D1FEF731F9401B57
:1039A00041F288339842F2D90327DDE73E46B8F169
:1039B000000F40F0C180236813F0010F08D06A4A5D
:1039C000D2F8883023F00303216A0B43C2F8883011
:1039D000236813F0020F08D0634AD2F8883023F02E
:1039E0000C03616A0B43C2F88830236813F0040F9C
:1039F00008D05D4AD2F8883023F03003A16A0B4327
:103A0000C2F88830236813F0200F08D0564AD2F845
:103A1000883023F44063E16A0B43C2F8883023689E
:103A200013F4007F08D0504AD2F8883023F44023A2
:103A3000E16B0B43C2F88830236813F4806F08D021
:103A4000494AD2F8883023F44013216C0B43C2F862
:103A50008830236813F0400F08D0434AD2F88830EA
:103A600023F44053216B0B43C2F88830236813F0D2
:103A7000800F08D03C4AD2F8883023F44043616B71
:103A80000B43C2F88830236813F4807F08D0364A8D
:103A9000D2F8883023F44033A16B0B43C2F888304E
:103AA000236813F4002F0FD02F4AD2F8883023F068
:103AB0004063A16C0B43C2F88830A36CB3F1006F74
:103AC00040D0B3F1806F42D0236813F4802F0FD021
:103AD000254AD2F8883023F04063E16C0B43C2F8EA
:103AE0008830E36CB3F1006F39D0B3F1806F3FD011
:103AF000236813F4804F0CD01B4AD2F8883023F08F
:103B00004053216D0B43C2F88830236DB3F1805FC1
:103B100036D0236813F4004F08D0134AD2F8883007
:103B200023F08043616D0B43C2F88830304602B009
:103B3000BDE8F0813E463AE70B4A936D23F080538F
:103B4000936538E7D36843F48013D360BCE7012161
:103B5000201DFFF7D7FD0028B6D00646B4E7D3688E
:103B600043F48013D360C3E70010024000700040AC
:103B70000121201DFFF7C6FD0028B9D00646B7E792
:103B80000221201DFFF7BEFD0028C2D00646C0E777
:103B900008B5B0F5003F1AD09D4BDB6803F0030376
:103BA000022B45D0032B4AD0012B4FD1984B1968DB
:103BB00011F002014BD01B6813F0080F32D0944B68
:103BC0001B68C3F30313934A52F823103FE0904B52
:103BD000D3F8903003F44073B3F5007F10D0B3F501
:103BE000407F17D0B3F5807F40F0B582884BD3F883
:103BF000900010F0020000F0B3824FF40040AFE2FA
:103C0000834BD3F8940010F0020000F0A9824FF427
:103C1000FA40A5E27E4B186810F4003000F0A08254
:103C20007D489DE27A4BD3F89430C3F30323CAE76F
:103C3000774B196811F4806109D0784907E0744B1B
:103C4000196811F4003102D0754900E00021B0F587
:103C5000807F00F00B822AD9B0F5804F00F0B2814E
:103C60006CD8B0F5806F00F03C82B0F5006F7CD06E
:103C7000B0F5007F60D1664BD3F8883003F4402361
:103C8000B3F5002F00F0268200F20C82002B00F02A
:103C90001782B3F5802F40F003825D4BD3F8940078
:103CA00010F0020000F05C824FF4FA4058E2202845
:103CB00028D8002800F0518201381F2800F24F82D6
:103CC000DFE810F0D800FC004D022B014D024D0240
:103CD0004D024D024D024D024D024D024D024D026C
:103CE0004D024D024D024D024D024D024D024D025C
:103CF0004D024D024D024D024D024D024D024D024C
:103D00004D025401402800F08B81802812D1404B95
:103D1000D3F8883003F44043B3F5804F00F09C8122
:103D2000B3F5004F00F09B81002B40F02482FFF799
:103D30002FFC15E2002013E2002011E2B0F5802FE5
:103D400018D0B0F5002F15D0B0F5004F0BD1304B87
:103D5000D3F8883013F0804300F0F381002B40F05B
:103D6000F3810020FCE10020FAE14FF40060FFF74E
:103D700051FCF5E1264BD3F8883003F04063B3F1F2
:103D8000006F4FD025D8002B6BD0B3F1806F1ED1C0
:103D90001F4B186810F0006000F0E281186910F401
:103DA000801000F0DD811A461B69C3F3062303FB74
:103DB00001F0D368C3F302130133B0FBF3F01369CE
:103DC000C3F3415301335B00B0FBF3F0C8E10020C3
:103DD000C6E1B3F1406F40F0C48103F1505303F5E5
:103DE0000433186810F0020000F0BA811B6813F069
:103DF000080F07D0064B1B68C3F30313054A52F89C
:103E00002300ADE1024BD3F89430C3F30323F5E76D
:103E10000010024048AA000890D003000024F400DB
:103E200000127A00A84B186810F0007000F098811A
:103E3000D86810F4801000F093811A46DB68C3F351
:103E4000062303FB01F0D368C3F302130133B0FB75
:103E5000F3F0D368C3F3415301335B00B0FBF3F0DD
:103E60007EE1994BD3F8980010F0020000F07881C1
:103E7000964875E1944BD3F8883003F00303032B85
:103E800000F27181DFE803F002050810FFF792FBF2
:103E900066E1FEF723FF63E18B4B186810F4806046
:103EA00000F05E818A485BE1874BD3F8900010F008
:103EB000020000F055814FF4004051E1824BD3F8ED
:103EC000883003F00C030C2B00F24F81DFE813F075
:103ED0000D004D014D014D0110004D014D014D01F1
:103EE00013004D014D014D011B00FFF751FB37E160
:103EF000FEF7F4FE34E1744B186810F4806000F0B3
:103F00002F8173482CE1704BD3F8900010F0020021
:103F100000F026814FF4004022E16B4BD3F888304B
:103F200003F03003202B19D007D8A3B1102B02D1F6
:103F3000FEF7D4FE14E1002012E1302B09D1624BD0
:103F4000D3F8900010F0020000F00A814FF4004016
:103F500006E1002004E1FFF71BFB01E15A4B186862
:103F600010F4806000F0FC805948F9E0564BD3F81B
:103F7000883003F44063B3F5006F1BD008D8B3B1A9
:103F8000B3F5806F02D1FEF7A9FEE9E00020E7E07B
:103F9000B3F5406F09D14C4BD3F8900010F00200FC
:103FA00000F0DE804FF40040DAE00020D8E0FFF7B8
:103FB000EFFAD5E0444B186810F4806000F0D08030
:103FC0004348CDE0404BD3F8883003F04053B3F181
:103FD000805F06D0B3F1405F40F0C980FEF77EFEFF
:103FE000BEE0394B186810F0006000F0B980186925
:103FF00010F0807000F0B48018461B69C3F30623EC
:1040000001FB03F3C268C2F302120132B3FBF2F305
:104010000069C0F3416001304000B3FBF0F09FE065
:10402000294BD3F8883003F44053B3F5805F08D0B0
:10403000B3F5005F08D0002B40F09B80FFF7A8FA93
:104040008EE0FEF74BFE8BE01F4B186810F480608B
:1040500000F086801E4883E0FEF740FE80E01A4BA9
:10406000186810F480607BD0194879E0164BD3F8BB
:10407000883003F44033B3F5803F07D0B3F5003FF9
:1040800007D0002B79D1FFF783FA69E0FEF726FE0F
:1040900066E00D4B186810F4806061D00C485FE05A
:1040A00000205DE0B3F5402F08D1074BD3F8900016
:1040B00010F0020054D04FF4004051E000204FE0D7
:1040C000FFF766FA4CE000BF00100240006CDC0213
:1040D0000024F4002A4B186810F4806040D029486E
:1040E0003EE0274BD3F8883003F44013B3F5001FAC
:1040F00020D00ED8DBB1B3F5801F08D1204BD3F808
:10410000940010F002002BD04FF4FA4028E0002079
:1041100026E0B3F5401F08D1194BD3F8900010F0FA
:1041200002001DD04FF400401AE0002018E0FFF715
:104130002FFA15E0124B186810F4806010D0114867
:104140000EE0FFF725FA0BE00D4B186810F48060C5
:1041500006D00C4804E0002002E0002000E000202F
:1041600008BD0020FCE70020FAE70020F8E7002067
:10417000F6E70020F4E70020F2E70020F0E700BFB8
:10418000001002400024F40038B5044603680A4ACF
:10419000DA60FDF735FD05462368DB6813F0200F74
:1041A00007D1FDF72DFD401BB0F57A7FF4D9032030
:1041B00000E0002038BD00BF5FFF030070B503685A
:1041C000DA6812F0400F02D00025284670BD044680
:1041D0004FF0FF32DA60FDF713FD06460025236835
:1041E000DB6813F0400FF0D1032DEED0FDF708FD92
:1041F000831BB3F57A7FF2D9032584F82150EEE7CB
:1042000010B50446104BDA6822F08002DA609B6831
:1042100013F0200F06D1FFF7B7FF98B1032084F801
:1042200021000FE0084A936823F020039360FFF712
:10423000ABFF10B1032084F82100034A936843F0D8
:104240002003936010BD00BF0028004000284ED01E
:1042500038B5044690F8213063B1022384F8213048
:104260002368DA6812F0100F09D00020012384F8C7
:10427000213038BD80F82030FDF730F9EDE7CA2253
:104280005A62236853225A622046FFF797FFC0B94B
:104290002268936823F4E00323F0400393602168CD
:1042A0008A68636820690343A069034313438B60F2
:1042B0002368E2681A6122681369A16843EA01432E
:1042C00013612046FFF79CFF58B92268D36C23F096
:1042D0000303D3642168CB6CE26965692A43134305
:1042E000CB642368FF225A620028C2D1BEE70120B6
:1042F0007047002302E001330A38C0B20928FAD817
:104300001B01DBB21843704790F82030012B5FD0BF
:1043100070B504460D461646012380F8203002236E
:1043200080F821300368CA225A62036853225A6215
:10433000FFF744FF00282ED1002E37D123689B6859
:1043400013F0400F01D10023EB702878FFF7D1FF65
:1043500006046878FFF7CDFF46EA0026A878FFF745
:10436000C8FF46EA0003EA7843EA8253226803F072
:104370007F3323F0FE4313602268936823F4802385
:10438000936021688B68EA682869024313438B6055
:104390002046FFF735FF2368FF225A6210B9012338
:1043A00084F82130002384F8203070BD23689B6896
:1043B00013F0400F01D10023EB702A786B781B02B9
:1043C00043EA0243AA781343EA7843EA8253CDE7EB
:1043D0000220704790F82030012B4BD070B5044676
:1043E0000E46012380F82030022380F82130F2B1FC
:1043F000CB784D782D0245EA03458B781D430B7829
:1044000045EA43352368CA225A62236853225A6216
:104410002046FFF7D3FE18B32368FF225A6210B973
:10442000012384F82130002384F8203070BD4B78BC
:1044300013F0100F03D003F0EF030A334B70F07842
:10444000FFF757FF05047078FFF753FF45EA002593
:10445000B078FFF74EFF0543337845EA4335D1E79F
:10446000236825F07F4525F0C0055D602046FFF7F5
:10447000C7FED1E702207047F8B590F82030012B35
:1044800000F0BD8004460E46012380F82030022350
:1044900080F82130002A55D103689B6813F0400F43
:1044A00001D10023CB703078FFF723FF050470782B
:1044B000FFF71FFF45EA0025B078FFF71AFF054315
:1044C000F37845EA835596F82400FFF712FF45EA92
:1044D0000065336A1D4373691D437768F3691F43A1
:1044E0002368CA225A62236853225A62B36AB3F518
:1044F000807F41D02268936823F400739360226820
:10450000D368DBB263F42073D3602268936823F42A
:1045100000539360FDF774FB06462368DA6812F0D7
:10452000020F5AD1FDF76CFB801BB0F57A7FF4D9EE
:104530002368FF225A62032084F82100002384F8B4
:1045400020305BE003689B6813F0400F01D100232B
:10455000CB70337875782D0245EA0345B3781D4357
:10456000F37845EA835596F8243045EA0365336AC3
:104570001D4373691D43B0E72268936823F4807379
:1045800093602268D368DBB263F4C073D36022689F
:10459000936823F480539360FDF732FB064623684B
:1045A000DA6812F0010F0FD1FDF72AFB801BB0F57E
:1045B0007A7FF4D92368FF225A62032084F821000D
:1045C000002384F8203019E0DD6123685F642268ED
:1045D000936843F48073936007E01D6223689F64CF
:1045E0002268936843F4007393602368FF225A6241
:1045F000012384F82130002084F82000F8BD022037
:10460000FCE7836A1A68D36B43F48073D363704703
:1046100070B582B0044600230193006801F03EFEAD
:10462000054610B1284602B070BD206802F030F98E
:1046300038B90123A364A36C012B0BD02E46284666
:1046400014E00023A364206801F028FE0028F2D0C3
:104650000546E7E70021206801F088FF0028EDD03B
:104660004FF08055DEE7019B01330193019A4FF62D
:10467000FE739A4213D896B90021206801F076FFA4
:10468000E0B91249206802F04FF80646C0B900218F
:10469000206801F0EEFDC30FE5D01E46E3E7019A66
:1046A0004FF6FE739A420ED810F0804302D00123D9
:1046B0006364B7E7002262641D46B3E70546B1E7CD
:1046C0004FF08055AEE74FF08075ABE7000010C1AA
:1046D000F8B5846AC66AA6B9F8BD386801F0A2FDCB
:1046E0002070C0F307236370C0F30743A370000E6C
:1046F000E0700434043E0135072DEED9BC62FE6241
:10470000EAE707460025F7E7F0B583B0046A466A92
:10471000DEB903B0F0BD23780193627843EA022347
:104720000193A27843EA02430193E27843EA0263E9
:1047300001930434043E01A9386801F076FD013587
:10474000072DE8D93C627E62E3E707460025F7E7DC
:10475000F0B589B004460F46FDF752FA064600232D
:10476000009301930821206801F056FE054610B120
:10477000284609B0F0BD216D0904206801F0F6FE5D
:1047800005460028F4D14FF0FF330293082303932A
:1047900030230493022305930023069301230793F8
:1047A00002A9206801F068FD206801F00FFF0546AE
:1047B00030B1DDE7FDF724FA831BB3F1FF3F42D0B0
:1047C0002068426B40F22A431A4209D1436B13F42A
:1047D000001FEFD001F026FD4DF825000135E9E777
:1047E000436B13F0080F25D1436B13F0020F24D154
:1047F000456B15F0200523D140F23A538363019AAB
:10480000130203F47F0343EA0263110A01F47F41B8
:104810000B4343EA12633B60009A130203F47F03E5
:1048200043EA0263110A01F47F410B4343EA126336
:104830007B609DE7082585639AE70225856397E7F6
:104840002025856394E74FF0004591E710B582B0CD
:104850000446002100910191006801F00AFD10F06A
:10486000007F13D169462046FFF772FF80B9019B94
:1048700013F4802F0ED0216D0904206801F076FE1C
:1048800030B90221206801F089FE01E04FF4006098
:1048900002B010BD4FF08060FAE710B582B0044658
:1048A000002100910191006801F0E3FC10F0007F0D
:1048B00013D169462046FFF74BFF80B9019B13F4E3
:1048C000803F0ED0216D0904206801F04FFE30B901
:1048D0000021206801F062FE01E04FF4006002B0A8
:1048E00010BD4FF08060FAE770B581B104460E4606
:1048F000016D0904006801F081FE054608B12846F3
:1049000070BD0021206801F0B4FC3060F7E74FF083
:104910000065F4E72DE9F04387B0044691B11646EF
:104920001F460A4690F83450EDB2012D72D1002393
:104930008363F019E36D98420AD9A36B43F00073C7
:10494000A36368E0836B43F000638363012562E047
:10495000032384F8343021680023CB62216C304873
:10496000C862216C2F484863216C8B6321684FEA31
:1049700047294FEA99038031206CFDF7DBFA804626
:1049800000282ED12268D36A43F00803D362636CF7
:10499000012B00D076024FF0FF330093CDF8049046
:1049A000902302930223039300230493012305938E
:1049B0006946206801F060FC012F1DD98223236322
:1049C0003146206801F058FDE8B12368164A9A6321
:1049D000A36B0343A363012384F8343000232363D0
:1049E00019E02368104A9A63A36B43F08043A363E2
:1049F000012384F834300EE081232363314620689C
:104A000001F022FDE0E72268D36B43F49573D36392
:104A1000454600E00225284607B0BDE8F08300BF08
:104A20003F4B000891500008FF054000F0B587B0EB
:104A30000446002933D01E460F4690F83450EDB29C
:104A4000012D70D1002383639319C16D8B422CD843
:104A5000032380F8343001680023CB62C16B3448F3
:104A6000C862E16B33484863E16B8B63636C012B75
:104A700000D05202012E1DD9A023236311462068C5
:104A800001F02AFDE8B123682B4A9A63A36B034324
:104A9000A363012384F834300023236344E0836B51
:104AA00043F00063836301253EE0836B43F00073B2
:104AB000836339E0902323631146206801F0F4FCFE
:104AC000E0E72268D36A43F00803D36222687602E3
:104AD000B30880323946E06BFDF72CFA074660B127
:104AE0002368154A9A63A36B43F08043A3630123B1
:104AF00084F834300023236316E04FF0FF33009333
:104B000001969023029300230393049301230593BA
:104B10006946206801F0B0FB2268D36B43F01A03AA
:104B2000D3633D4600E00225284607B0F0BD00BF34
:104B30000346000891500008FF054000704710B57B
:104B4000846A236B822B11D02268D36A23F0080376
:104B5000D362236840F23A529A63012384F83430D6
:104B600000232363204601F050FF10BD206801F0B0
:104B7000CBFC03460028E7D0A26B1343A363204677
:104B8000FFF7DCFFE0E700000346426E920F0A7079
:104B9000426EC2F383624A7090F8672002F003020B
:104BA0008A7090F86620CA7090F865200A7190F8B3
:104BB00064204A71826E120DCA80B0F86A2002F039
:104BC0000F020A72826EC2F3C0324A72826EC2F360
:104BD00080328A72826EC2F34032CA72826EC2F32F
:104BE00000320A7300224A73426C002A40F0868029
:104BF000806E40F6FC7202EA8002D86E42EA907241
:104C00000A61DA6EC2F3C2620A7593F86F2002F08D
:104C100007024A75DA6EC2F342528A75DA6EC2F33F
:104C20008242CA75DA6EC2F3C2320A760A6901326A
:104C30005A65087E00F00700023082405A6591F8FC
:104C400008C00CF00F0C012000FA0CF09865400A27
:104C500000FB02F2DA654FF400721A66DA6EC2F3F4
:104C600080324A76DA6EC2F3C6128A76DA6E02F0C3
:104C70007F02CA761A6FD20F0A771A6FC2F3417297
:104C80004A771A6FC2F382628A771A6FC2F383522D
:104C9000CA771A6FC2F3405281F82020002081F8B1
:104CA0002100B3F8722002F0010281F822201A6F6D
:104CB000C2F3C03281F823201A6FC2F3803281F828
:104CC00024201A6FC2F3403281F825201A6FC2F3F4
:104CD000003281F826201A6FC2F3812281F8272042
:104CE0001A6FC2F3012281F828201B6FC3F3460319
:104CF00081F82930012381F82A307047012A11D127
:104D0000826E120402F47C12B0F86E0002430A6153
:104D10000A69013292025A65DA654FF400729A65A7
:104D20001A669BE7026805499163826B42F08052E4
:104D30008263012083F83400704700BFFF05400004
:104D400070B590B004460123ADF81230006801F050
:104D500079FA00286CD0636C032B45D1636C032B6C
:104D60005DD1636C032B1DD0BDF8121021650904C1
:104D7000206801F09EFC054600285BD100212068D8
:104D800001F077FA60660421206801F072FAA066EB
:104D90000821206801F06DFAE0660C21206801F01E
:104DA00068FA20670421206801F063FA000DE064CE
:104DB00005A92046FFF7E8FE00283ED1226D120427
:104DC0000023206801F0BAFB054698BB234653F840
:104DD000106B93E807008DE80700043494E80E0098
:104DE000304601F005FA25E0206801F04DFC05464B
:104DF00000BB0021206801F03CFA606704212068B4
:104E000001F037FAA0670821206801F032FAE06764
:104E10000C21206801F02DFAC4F880009EE70DF106
:104E20001201206801F0EAFC0546002899D001E053
:104E30004FF08065284610B070BD4FF08055F9E7FF
:104E400070B58AB004460023049305930693079334
:104E500008934FF40020FEF79BFE38B9012084F838
:104E600034004FF00063A3630AB070BD0646C50965
:104E7000274BA3FB05352D09AB1E09930AAB13E99C
:104E800007008DE8070004AB0ECB206801F0B0F9F5
:104E90002268536823F480735360206801F0CAF9D4
:104EA0002268536843F480735360B6FBF5F61948E3
:104EB000B0FBF6F00130FCF7A9FE2046FFF7A8FB97
:104EC000024630B1012084F83400A36B1343A3637E
:104ED000CAE72046FFF734FF024630B1012084F8CC
:104EE0003400A36B1343A363BEE74FF40071206843
:104EF00001F092FA08B90020B6E7236806499963E1
:104F0000A36B0343A363012084F83400ACE700BF24
:104F1000598B4F0110210100FF054000A8B110B5C9
:104F2000044690F8343063B1032384F834302046CB
:104F3000FFF786FF58B9A0632063012384F834305B
:104F400010BD0377FCF7F2FAEEE70120704701206D
:104F5000F6E7436C0B60836C4B60C36C8B60036D36
:104F6000CB60436D0B61836D4B61C36D8B61036ED1
:104F7000CB6100207047000030B58BB004460D4671
:104F8000032380F83430436C032B1CD0B1F5805FD1
:104F900008D0B1F5006F0AD079B1836B43F000639C
:104FA000836314E0836B43F0805383630FE0FFF768
:104FB0004DFCA36B0343A36309E0FFF76EFCA36BF7
:104FC0000343A36303E0836B43F080538363A36BCA
:104FD000B3B12368224A9A6301254FF40071206817
:104FE00001F01AFA30B123681D499963A36B03439A
:104FF000A3630125012384F8343028460BB030BD6B
:105000004FF40020FEF7C4FD034618B36268049213
:10501000A2680592E2680692079562690892A16902
:105020008A1CB0FBF2F20F48824211D90E4AA2FB51
:105030000323DB0D023B09930AAB13E907008DE85C
:10504000070004AB0ECB206801F0D2F80025C4E7BE
:105050000991F1E7A36B43F00063A3630125BCE76B
:10506000FF05400040787D01893BE65510B582B0D0
:1050700004460023019301A9FFF736FC10B1A36B8E
:105080000343A3630198C0F3432002B010BD0000A6
:1050900010B5846A236CDB6BE26BD26B012B05D0FD
:1050A000012A03D02046FFF749FD10BD23680F4AAF
:1050B0009A632268D36B23F49D73D363A36B43F08D
:1050C0008043A3632046FFF7D1FF0538012805D9A7
:1050D000012384F8343000232363E3E7206801F0E0
:1050E00013FAA36B0343A363F2E700BFFF0540007D
:1050F00010B5846A236840F23A529A632046FFF75B
:10510000B5FF012384F834300023236305380128D8
:1051100005D9A36B53B9204601F06FFC10BD206880
:1051200001F0F2F9A36B0343A363F2E72046FFF714
:1051300005FDF3E710B5846A236840F23A529A639A
:105140002046FFF793FF012384F8343000232363C4
:105150000538012805D9A36B53B9204601F04DFC51
:1051600010BD206801F0D0F9A36B0343A363F2E7FD
:105170002046FFF7E3FCF3E738B50446056B036808
:105180005A6B12F4004F02D015F0080F28D15A6B59
:1051900012F4807F5AD04FF480729A632268D36BE6
:1051A00023F4414323F03A03D3632268D36A23F004
:1051B0000103D36215F0080F26D015F0220F12D18B
:1051C000236840F23A529A63012384F83430002372
:1051D000236315F0030F13D0204601F016FC01E005
:1051E000FFF776FA38BD206801F08EF903460028F3
:1051F000E6D0A26B1343A3632046FFF79FFCDFE7D3
:10520000204601F0FEFBEDE715F0800FEAD015F027
:10521000200F0ED115F0030FE4D12268D36A23F0DA
:105220000803D362012384F83430204601F0E9FBFF
:10523000D8E7206801F068F903460028EAD0A26B9D
:105240001343A3632046FFF779FCE3E75A6B12F49C
:10525000804F02D015F0080F4AD15A6B12F03A0F66
:10526000C0D05A6B12F0020F03D0A26B42F00202C0
:10527000A2635A6B12F0080F03D0A26B42F008022F
:10528000A2635A6B12F0200F03D0A26B42F02002EF
:10529000A2635A6B12F0100F03D0A26B42F01002FF
:1052A000A26340F23A529A632268D36B23F49D734F
:1052B000D363206801F028F9A36B0343A36315F0BF
:1052C000080F19D115F0800F8CD015F0300F1CD1BC
:1052D00015F0030F26D0236C174A9A63206CFCF755
:1052E00064FE00283FF47EAF206CFFF723FF79E7D0
:1052F0002046FFF709FA75E7012384F834300023CC
:1053000023632046FFF71AFC6CE7E36B0B4A9A63B2
:10531000E06BFCF74AFE00283FF464AFE06BFFF758
:10532000E7FE5FE70023A363012284F834202363B0
:10533000204601F062FB55E735510008F1500008A6
:1053400000286AD010B50446436A33B94368B3F500
:10535000827F05D00023C36102E000230361436123
:105360000023A36294F85D30002B4DD0022384F813
:105370005D302268136823F040031360E368B3F5DF
:10538000E06F47D90022B3F5706F04D0B3F5E06F3A
:1053900001D00023A362636803F48273A16801F45F
:1053A00004410B43216901F002010B43616901F0E3
:1053B00001010B43A16901F400710B43E16901F0A4
:1053C00038010B43216A01F080010B43A16A01F40B
:1053D000005120680B430360638B03F00403616A90
:1053E00001F010010B43616B01F008010B43E16810
:1053F00001F470610B43216813434B600020206669
:10540000012384F85D3010BD84F85C302046FCF741
:1054100035F9ABE74FF48052B5E701207047000043
:1054200030B4026A036A23F00103036244688369AB
:1054300023F4803323F073030D681D4322F002022E
:105440008B681343144A904207D002F5A052904251
:1054500003D002F58062904205D123F00803CA68A8
:105460001A4322F004030C4A904207D002F5A052DE
:10547000904203D002F58062904205D124F440743A
:105480004A6922438C691443446085614A684263D7
:10549000036230BC704700BF002C014030B4036A87
:1054A000026A22F4807202624468C26922F4803285
:1054B00022F073020D68154323F400738A6843EAEF
:1054C0000223104A904207D00F4A90420BD002F5B7
:1054D000806290420FD106E023F40063CA6843EA79
:1054E000022323F4806324F440544A6944EA0214FA
:1054F0008A6944EA02144460C5614A68C26303626F
:1055000030BC7047002C01400040014030B4026ABA
:10551000036A23F4805303624468C36923F08073F1
:1055200023F4E6430D6843EA052322F400528D6814
:1055300042EA05320B4DA84207D005F5A055A84216
:1055400003D005F58065A84204D124F480444D6958
:1055500044EA85144460C3614B680364026230BC52
:10556000704700BF002C014030B4036A026A22F485
:10557000803202624468426D22F4803222F070026E
:105580000D682A4323F400338D6843EA05430B4D2D
:10559000A84207D005F5A055A84203D005F58065BF
:1055A000A84204D124F480344D6944EA05244460BF
:1055B00042654A688265036230BC7047002C014036
:1055C00030B4026A036A23F4801303624468436DB3
:1055D00023F0807323F4E0430D6843EA052322F4AB
:1055E00000128D6842EA05520B4DA84207D005F51E
:1055F000A055A84203D005F58065A84204D124F443
:1056000080244D6944EA8524446043654B68C36542
:10561000026230BC704700BF002C014010B4036A26
:10562000046A24F001040462846924F0F00C4CEA5A
:10563000021223F00A030B43826103625DF8044BFC
:10564000704710B4036A046A24F010040462846989
:1056500024F4704C4CEA023223F0A00343EA011315
:10566000826103625DF8044B7047836823F0700326
:105670000B4343F0070383607047000090F83D3010
:10568000DBB2012B26D1022380F83D300268D368BB
:1056900043F00103D3600368114A93420CD0B3F185
:1056A000804F09D002F5A052934205D01A6842F00B
:1056B00001021A600020704799680A4A0A40062AC7
:1056C0000AD0B2F5803F09D01A6842F001021A6090
:1056D000002070470120704700207047002070476D
:1056E000002C014007000100704770477047704769
:1056F000704770B504460368DE681D6915F0020F37
:1057000010D016F0020F0DD06FF002021A610123C3
:10571000037703689B6913F0030F64D0FFF7E6FF7C
:105720000023237715F0040F12D016F0040F0FD0CA
:1057300023686FF004021A610223237723689B69B0
:1057400013F4407F55D02046FFF7D0FF0023237786
:1057500015F0080F12D016F0080F0FD023686FF065
:1057600008021A61042323772368DB6913F0030F0F
:1057700046D02046FFF7BAFF0023237715F0100F1D
:1057800012D016F0100F0FD023686FF010021A61BC
:10579000082323772368DB6913F4407F37D0204642
:1057A000FFF7A4FF0023237715F0010F02D016F0B6
:1057B000010F33D115F0800F02D016F0800F35D1D4
:1057C00015F4807F02D016F0800F37D115F0400F0E
:1057D00002D016F0400F39D115F0200F02D016F08C
:1057E000200F3BD170BDFFF780FF2046FFF77FFF02
:1057F00096E72046FFF779FF2046FFF778FFA5E7F9
:105800002046FFF772FF2046FFF771FFB4E72046FE
:10581000FFF76BFF2046FFF76AFFC3E723686FF0CF
:1058200001021A612046FAF7E3FFC3E723686FF02D
:1058300080021A61204600F032FAC1E723686FF453
:1058400080721A61204600F02BFABFE723686FF0E0
:1058500040021A612046FFF74BFFBDE723686FF057
:1058600020021A61204600F019FABBE703681A4AC1
:10587000904202D0B0F1804F03D123F070034A6808
:105880001343154A90420AD0B0F1804F07D002F579
:10589000A052904203D002F58062904203D123F4DB
:1058A0004073CA68134323F080034A6913430360BB
:1058B0008B68C3620B688362074B984207D003F57D
:1058C000A053984203D003F58063984201D10B693D
:1058D0000363012343617047002C014060B310B59E
:1058E000044690F83D3013B3022384F83D3021463E
:1058F00051F8040BFFF7BAFF012384F8483084F80D
:105900003E3084F83F3084F8403084F8413084F8E9
:10591000423084F8433084F8443084F8453084F8C9
:10592000463084F8473084F83D30002010BD80F8C0
:105930003C30FBF713FFD7E70120704760B310B589
:10594000044690F83D3013B3022384F83D302146DD
:1059500051F8040BFFF78AFF012384F8483084F8DC
:105960003E3084F83F3084F8403084F8413084F889
:10597000423084F8433084F8443084F8453084F869
:10598000463084F8473084F83D30002010BD80F860
:105990003C30FFF7A9FED7E70120704730B4036A17
:1059A000026A22F0100202624468826922F0807268
:1059B00022F4E6420D6842EA052223F020038D68B6
:1059C00043EA0513104DA84207D0104DA8420BD052
:1059D00005F58065A8420FD106E023F08003CD686D
:1059E00043EA051323F0400324F440644D6944EA7C
:1059F00085048D6944EA8504446082614A68826353
:105A0000036230BC704700BF002C014000400140E1
:105A100090F83C30012B36D010B50446012380F8B5
:105A20003C30142A2AD8DFE802F00B292929102952
:105A30002929152929291A2929291F292929240031
:105A40000068FFF7EDFC002019E00068FFF7A6FFF3
:105A5000002014E00068FFF721FD00200FE000683F
:105A6000FFF754FD00200AE00068FFF77DFD0020ED
:105A700005E00068FFF7A4FD002000E001200023FE
:105A800084F83C3010BD0220704710B4846824F4C0
:105A90007F4C42EA03220A4342EA0C0282605DF82C
:105AA000044B704790F83C30012B76D010B504467B
:105AB000012380F83C30022380F83D300268906872
:105AC000374B034093600B68602B4CD023D8402B9E
:105AD00054D011D8202B03D00AD80BB1102B05D1EC
:105AE00019462068FFF7C1FD002028E0012026E0CC
:105AF000302BF5D0012022E0502B0AD1CA6849682A
:105B00002068FFF78BFD50212068FFF7AEFD0020D5
