:020000040800F2
:1000000000000120412800088526000887260008F6
:10001000892600088B2600088D26000800000000B5
:1000200000000000000000000000000001A900081E
:100030008F26000800000000A1A90008AFA5000855
:1000400091280008912800089128000891280008AC
:10005000912800089128000891280008912800089C
:10006000912800089128000891280008912800088C
:1000700091260008A1260008B1260008C126000824
:10008000D1260008E12600089128000891280008E0
:10009000912800089128000891280008912800085C
:1000A000912800089128000891280008912800084C
:1000B00091280008000000000000000091280008BE
:1000C000F1260008912800089128000891280008CE
:1000D000912800080127000811270008212700089F
:1000E000912800089128000800000000000000008E
:1000F0000000000000000000000000000000000000
:1001000000000000312700080000000091280008CE
:1001100000000000000000004127000891280008AE
:10012000912800089128000891280008512700080C
:1001300091280008000000000000000000000000FE
:10014000912800089128000891280008000000006C
:10015000912800089128000891280008912800089B
:10016000912800089128000891280008000000004C
:1001700091280008912800080000000000000000FD
:0C01800091280008912800089128000830
:1001C00081F0004102E000BF83F0004330B54FEA08
:1001D00041044FEA430594EA050F08BF90EA020F75
:1001E0001FBF54EA000C55EA020C7FEA645C7FEA08
:1001F000655C00F0E2804FEA5454D4EB5555B8BF2B
:100200006D420CDD2C4480EA020281EA030382EA9B
:10021000000083EA010180EA020281EA0303362D2D
:1002200088BF30BD11F0004F4FEA01314FF4801C00
:100230004CEA113102D0404261EB410113F0004F12
:100240004FEA03334CEA133302D0524263EB4303C9
:1002500094EA050F00F0A780A4F10104D5F1200E67
:100260000DDB02FA0EFC22FA05F2801841F10001C2
:1002700003FA0EF2801843FA05F359410EE0A5F196
:1002800020050EF1200E012A03FA0EFC28BF4CF0C7
:10029000020C43FA05F3C01851EBE37101F000457D
:1002A00007D54FF0000EDCF1000C7EEB00006EEB8A
:1002B0000101B1F5801F1BD3B1F5001F0CD3490814
:1002C0005FEA30004FEA3C0C04F101044FEA44526B
:1002D00012F5800F80F09A80BCF1004F08BF5FEAF2
:1002E000500C50F1000041EB045141EA050130BDD2
:1002F0005FEA4C0C404141EB0101013C28BFB1F5E4
:10030000801FE9D291F0000F04BF01460020B1FA2E
:1003100081F308BF2033A3F10B03B3F120020CDA01
:100320000C3208DD02F1140CC2F10C0201FA0CF0DF
:1003300021FA02F10CE002F11402D8BFC2F1200C44
:1003400001FA02F120FA0CFCDCBF41EA0C019040FA
:10035000E41AA2BF01EB0451294330BD6FEA040443
:100360001F3C1CDA0C340EDC04F11404C4F120022E
:1003700020FA04F001FA02F340EA030021FA04F340
:1003800045EA030130BDC4F10C04C4F1200220FA97
:1003900002F001FA04F340EA0300294630BD21FAD5
:1003A00004F0294630BD94F0000F83F4801306BF9B
:1003B00081F480110134013D4EE77FEA645C18BF8F
:1003C0007FEA655C29D094EA050F08BF90EA020F26
:1003D00005D054EA000C04BF1946104630BD91EA1E
:1003E000030F1EBF0021002030BD5FEA545C05D121
:1003F0004000494128BF41F0004130BD14F5800460
:100400003CBF01F5801130BD01F0004545F0FE41D3
:1004100041F470014FF0000030BD7FEA645C1ABF08
:10042000194610467FEA655C1CBF0B46024650EA3F
:10043000013406BF52EA033591EA030F41F400216B
:1004400030BD00BF90F0000F04BF0021704730B5F1
:100450004FF4806404F132044FF000054FF00001C6
:1004600050E700BF90F0000F04BF0021704730B587
:100470004FF4806404F1320410F0004548BF40425C
:100480004FF000013EE700BF42004FEAE2014FEAB1
:1004900031014FEA02701FBF12F07F4393F07F4F8C
:1004A00081F06051704732F07F4208BF704793F08F
:1004B0007F4F04BF41F40021704730B54FF46074A2
:1004C00001F0004521F000411CE700BF50EA0102A5
:1004D00008BF704730B54FF000050AE050EA01024E
:1004E00008BF704730B511F0004502D5404261EBBE
:1004F00041014FF4806404F132045FEA915C3FF4FF
:10050000D8AE4FF003025FEADC0C18BF03325FEA9B
:10051000DC0C18BF033202EBDC02C2F1200300FA4C
:1005200003FC20FA02F001FA03FE40EA0E0021FA71
:1005300002F11444BDE600BF70B54FF0FF0C4CF45F
:10054000E06C1CEA11541DBF1CEA135594EA0C0F11
:1005500095EA0C0F00F0DEF82C4481EA030621EA4C
:100560004C5123EA4C5350EA013518BF52EA033587
:1005700041F4801143F4801338D0A0FB02CE4FF039
:100580000005E1FB02E506F00042E0FB03E54FF069
:100590000006E1FB03569CF0000F18BF4EF0010E61
:1005A000A4F1FF04B6F5007F64F5407404D25FEA5D
:1005B0004E0E6D4146EB060642EAC62141EA555110
:1005C0004FEAC52040EA5E504FEACE2EB4F1FD0C52
:1005D00088BFBCF5E06F1ED8BEF1004F08BF5FEAD0
:1005E000500E50F1000041EB045170BD06F0004682
:1005F00046EA010140EA020081EA0301B4EB5C042F
:10060000C2BFD4EB0C0541EA045170BD41F4801126
:100610004FF0000E013C00F3AB8014F1360FDEBF4B
:10062000002001F0004170BDC4F10004203C35DA27
:100630000C341BDC04F11404C4F1200500FA05F3AA
:1006400020FA04F001FA05F240EA020001F000424B
:1006500021F0004110EBD37021FA04F642EB0601C1
:100660005EEA430E08BF20EAD37070BDC4F10C04EB
:10067000C4F1200500FA04F320FA05F001FA04F2AF
:1006800040EA020001F0004110EBD37041F100019B
:100690005EEA430E08BF20EAD37070BDC4F12005A6
:1006A00000FA05F24EEA020E20FA04F301FA05F20E
:1006B00043EA020321FA04F001F0004121FA04F2B6
:1006C00020EA020000EBD3705EEA430E08BF20EA86
:1006D000D37070BD94F0000F0FD101F000464000C0
:1006E00041EB010111F4801F08BF013CF7D041EA42
:1006F000060195F0000F18BF704703F00046520046
:1007000043EB030313F4801F08BF013DF7D043EA16
:100710000603704794EA0C0F0CEA135518BF95EACC
:100720000C0F0CD050EA410618BF52EA4306D1D153
:1007300081EA030101F000414FF0000070BD50EA72
:10074000410606BF1046194652EA430619D094EAFC
:100750000C0F02D150EA013613D195EA0C0F05D1E6
:1007600052EA03361CBF104619460AD181EA03013A
:1007700001F0004141F0FE4141F470014FF00000F2
:1007800070BD41F0FE4141F4780170BD70B54FF08D
:10079000FF0C4CF4E06C1CEA11541DBF1CEA13550D
:1007A00094EA0C0F95EA0C0F00F0A7F8A4EB0504EF
:1007B00081EA030E52EA03354FEA013100F08880E6
:1007C0004FEA03334FF0805545EA131343EA1263AF
:1007D0004FEA022245EA111545EA10654FEA002664
:1007E0000EF000419D4208BF964244F1FD0404F51D
:1007F000407402D25B084FEA3202B61A65EB030579
:100800005B084FEA32024FF480104FF4002CB6EB35
:10081000020E75EB030E22BFB61A754640EA0C00B5
:100820005B084FEA3202B6EB020E75EB030E22BFF5
:10083000B61A754640EA5C005B084FEA3202B6EB36
:10084000020E75EB030E22BFB61A754640EA9C00F5
:100850005B084FEA3202B6EB020E75EB030E22BFC5
:10086000B61A754640EADC0055EA060E18D04FEA83
:10087000051545EA16754FEA06164FEAC30343EA23
:1008800052734FEAC2025FEA1C1CC0D111F4801FF0
:100890000BD141EA00014FF000004FF0004CB6E7E9
:1008A00011F4801F04BF01430020B4F1FD0C88BF88
:1008B000BCF5E06F3FF6AFAEB5EB030C04BFB6EB93
:1008C000020C5FEA500C50F1000041EB045170BD86
:1008D0000EF0004E4EEA113114EB5C04C2BFD4EBB3
:1008E0000C0541EA045170BD41F480114FF0000E37
:1008F000013C90E645EA060E8DE60CEA135594EAB3
:100900000C0F08BF95EA0C0F3FF43BAF94EA0C0FB5
:100910000AD150EA01347FF434AF95EA0C0F7FF42A
:1009200025AF104619462CE795EA0C0F06D152EA7E
:1009300003353FF4FDAE1046194622E750EA410662
:1009400018BF52EA43067FF4C5AE50EA41047FF473
:100950000DAF52EA43057FF4EBAE12E74FF0FF3CD8
:1009600006E000BF4FF0010C02E000BF4FF0010CA9
:100970004DF804CD4FEA410C7FEA6C5C4FEA430C22
:1009800018BF7FEA6C5C1BD001B050EA410C0CBF71
:1009900052EA430C91EA030F02BF90EA020F0020D3
:1009A000704710F1000F91EA030F58BF994208BF3A
:1009B00090422CBFD8176FEAE37040F001007047F7
:1009C0004FEA410C7FEA6C5C02D150EA013C07D14E
:1009D0004FEA430C7FEA6C5CD6D152EA033CD3D099
:1009E0005DF8040B704700BF8446104662468C4693
:1009F0001946634600E000BF01B5FFF7B7FF0028C6
:100A000048BF10F1000F01BD4DF808EDFFF7F4FFEE
:100A10000CBF012000205DF808FB00BF4DF808ED79
:100A2000FFF7EAFF34BF012000205DF808FB00BF9C
:100A30004DF808EDFFF7E0FF94BF012000205DF8BE
:100A400008FB00BF4DF808EDFFF7CEFF94BF012073
:100A500000205DF808FB00BF4DF808EDFFF7C4FF6C
:100A600034BF012000205DF808FB00BF4FEA4102BF
:100A700012F5001215D211D56FF47873B3EB6252F0
:100A800012D94FEAC12343F0004343EA505311F017
:100A9000004F23FA02F018BF404270474FF00000A9
:100AA000704750EA013005D111F0004008BF6FF0E7
:100AB000004070474FF00000704700BF4A0011D25D
:100AC00012F5001211D20DD56FF47873B3EB6252A8
:100AD0000ED44FEAC12343F0004343EA505323FAB4
:100AE00002F070474FF00000704750EA013002D129
:100AF0004FF0FF3070474FF00000704753B94AB9CC
:100B0000002908BF00281CBF4FF0FF314FF0FF3015
:100B100000F00CB8ADF1080C6DE904CE0BF09EFBB3
:100B2000DDF804E0DDE9022304B07047704700BF40
:100B300000000000000000000000000000000000B5
:100B400002780B78012A28BF9A4240F0D8806DE9DC
:100B5000044540EA0104CDE902676FF0000C4FEA5A
:100B600044721AB380EA010414F0070F6BD100F04D
:100B7000070420F0070004F0030521F007014FEA05
:100B8000C505F0E8042314F0040FF1E804670CFA3B
:100B900005F462EA040266EA04060BD063EA040381
:100BA000624667EA0407664604E000BFF0E80423F3
:100BB000F1E8046782FA4CF582EA0604A4FA8CF4A0
:100BC0006CBB83FA4CF583EA0705A5FA8CF595B959
:100BD00050E9022351E9026782FA4CF582EA0604E1
:100BE000A4FA8CF483FA4CF583EA0705A5FA8CF590
:100BF0002543DBD09CB92DBAB5FA85F424F007045F
:100C000027FA04F1DDE9026723FA04F303F0FF0099
:100C100001F0FF01FDE80445A0EB0100704724BA94
:100C2000B4FA84F424F0070426FA04F1DDE902673B
:100C300022FA04F202F0FF0001F0FF01FDE8044592
:100C4000A0EB0100704714F0030F3CD110F0030437
:100C500028D150F8082B51F8083B82FA4CF582EA6B
:100C60000305A5FA8CF55DB950F8042C51F8043C45
:100C700082FA4CF582EA0305A5FA8CF5002DE8D03E
:100C80002DBAB5FA85F424F0070423FA04F122FA08
:100C900004F202F0FF0001F0FF01FDE80445A0EBC3
:100CA000010070474FEAC40420F0030050F8082BFD
:100CB00021F0030151F8083B0CFA04F462EA040243
:100CC00063EA0403C9E710F003041DD0A1EB04019B
:100CD00020F00300E40750F8042B06D012D28B78E2
:100CE0005FFAA2F4E41A06D12BB1CB785FFAB2F422
:100CF000E41A00D133B920465DF8104B7047A2EBDF
:100D00000300704701F1040150F8042BCC0721F0D7
:100D1000030151F8043B48D824D222F07F4482FAE0
:100D20004CF594EA1325A5FA8CF50AD165B951F86A
:100D3000043B84EA0204B4EB036F0ED150F8042B99
:100D4000EBE74FEA132355E035F07F454DD10878A6
:100D5000FDE80445C0F1000070474FEA126203F05D
:100D6000FF0347E002EA1C4482FA4CF594EA13457B
:100D7000A5FA8CF50AD165B951F8043B84EA02045E
:100D8000B4EB034F0CD150F8042BEBE74FEA1343BD
:100D900030E015EA1C4528D10B884FEA124229E0C1
:100DA0004FEA124203EA1C4324E002F0FF0482FAF5
:100DB0004CF594EA1365A5FA8CF50AD165B951F89A
:100DC000043B84EA0204B4EB032F09D150F8042B4E
:100DD000EBE74FEA13630DE015F0FF0F05D10B6849
:100DE0004FEA122223F07F4304E04FF00000FDE8B9
:100DF0000445704712BA1BBA82FA4CF482EA030423
:100E0000A4FA8CF5B5FA85F402FA04F203FA04F3B5
:100E10004FEA1260FDE80445A0EB1360704700BF85
:100E200001F0FF01102A2BDB10F0070F08D010F89B
:100E3000013B013A8B422DD010F0070F42B3F6D19F
:100E4000F0B441EA012141EA014122F007047FF0B8
:100E500000070023F0E80256083C85EA010586EA0F
:100E6000010685FA47F5A3FA87F586FA47F6A5FA4B
:100E700087F68EB9EED1F0BC01F0FF0102F0070257
:100E800032B110F8013B013A83EA010313B1F8D102
:100E90000020704701387047002D06BF35460338E3
:100EA000073815F0010F07D1013015F4807F02BF1C
:100EB000013015F4C03F0130F0BC0138704700BF6D
:100EC000844641EA000313F003036DD1403A41D355
:100ED00051F8043B40F8043B51F8043B40F8043B14
:100EE00051F8043B40F8043B51F8043B40F8043B04
:100EF00051F8043B40F8043B51F8043B40F8043BF4
:100F000051F8043B40F8043B51F8043B40F8043BE3
:100F100051F8043B40F8043B51F8043B40F8043BD3
:100F200051F8043B40F8043B51F8043B40F8043BC3
:100F300051F8043B40F8043B51F8043B40F8043BB3
:100F400051F8043B40F8043B51F8043B40F8043BA3
:100F5000403ABDD2303211D351F8043B40F8043B43
:100F600051F8043B40F8043B51F8043B40F8043B83
:100F700051F8043B40F8043B103AEDD20C3205D353
:100F800051F8043B40F8043B043AF9D2043208D04B
:100F9000D2071CBF11F8013B00F8013B01D30B88BD
:100FA00003806046704700BF082A13D38B078DD09B
:100FB00010F003038AD0C3F10403D21ADB071CBF6D
:100FC00011F8013B00F8013B80D331F8023B20F8D7
:100FD000023B7BE7043AD9D3013A11F8013B00F810
:100FE000013BF9D20B7803704B7843708B78837098
:100FF0006046704700000000000000000000000094
:1010000030B490F800F020F007016FF0000C10F001
:10101000070491F820F040F048804FF000046FF092
:101020000700D1E9002391F840F000F1080082FAAE
:101030004CF2A4FA8CF283FA4CF3A2FA8CF34BBB79
:10104000D1E9022382FA4CF200F10800A4FA8CF2F2
:1010500083FA4CF3A2FA8CF3E3B9D1E9042382FAC0
:101060004CF200F10800A4FA8CF283FA4CF3A2FAD5
:101070008CF37BB9D1E9062301F1200182FA4CF20D
:1010800000F10800A4FA8CF283FA4CF3A2FA8CF374
:10109000002BC6D0002A04BF04301A4612BAB2FA96
:1010A00082F200EBD20030BC7047D1E9002304F09B
:1010B0000305C4F100004FEAC50514F0040F91F8D0
:1010C00040F00CFA05F562EA05021CBF63EA05036D
:1010D00062464FF00004AAE74FEA410C7FEA6C5CDD
:1010E00002D150EA013C0AD14FEA430C7FEA6C5C22
:1010F00002D152EA033C02D14FF0000070474FF09A
:10110000010070470348044B834202D0034B03B1F4
:1011100018477047C8060020C806002000000000DD
:101120000548064B1B1AD90F01EBA301491002D049
:10113000034B03B118477047C8060020C8060020BB
:101140000000000010B5064C237843B9FFF7DAFF22
:10115000044B13B10448AFF300800123237010BD8A
:10116000C806002000000000342B010808B5054B1C
:101170001BB105490548AFF30080BDE80840FFF703
:10118000CFBF00BF00000000CC060020342B0108B8
:10119000704770474FF06043D3F8803E13F0010F63
:1011A00011D04FF06043D3F8003E13F0010F01D18E
:1011B000704700BF4FF060431B68002BF9D0C3B2EB
:1011C0004FF0604213707047054B064A1A600022C8
:1011D0005A609A60DA601A615A6180229A61704797
:1011E000140B002000280140F0B58BB000240594BA
:1011F0000694079408940994344BDA6C42F0040284
:10120000DA64DA6C02F004020192019ADA6C42F0BC
:101210000102DA64DA6C02F001020292029ADA6CDC
:1012200042F00202DA64DA6C02F002020392039ADC
:10123000DA6C42F00802DA64DB6C03F00803049312
:10124000049B234D22468821284603F0F5FE2246C2
:1012500070214FF0904003F0EFFE1E4F22464FF4F6
:101260008071384603F0E8FE42F2040305930694C9
:10127000079405A9284603F0FBFD88230593012662
:1012800006960794089405A9284603F0F1FD7023FB
:10129000059306960794089405A94FF0904003F033
:1012A000E7FD4023059303230693079405A92846E9
:1012B00003F0DEFD4FF480730593069607940894BF
:1012C00005A9384603F0D4FD0BB0F0BD0010024074
:1012D000000800480004004800B583B0264B9A6C13
:1012E00042F001029A649A6C02F001020092009AA4
:1012F0009A6C42F002029A649B6C03F00203019321
:10130000019B002205210C2003F034FB0C2003F08C
:1013100041FB002205210D2003F02CFB0D2003F0E2
:1013200039FB002205210E2003F024FB0E2003F0E0
:1013300031FB002205210F2003F01CFB0F2003F0DE
:1013400029FB00220521102003F014FB102003F0DC
:1013500021FB00220521112003F00CFB112003F0DA
:1013600019FB002205213B2003F004FB3B2003F086
:1013700011FB03B05DF804FB0010024008B540F615
:10138000B83009F0AEF9FAE700B583B0012226497A
:10139000264808F02BFC01222549264808F026FCA7
:1013A00001222549254808F021FC06E00A220DF11A
:1013B0000701234B186809F0D8FE214B186809F083
:1013C00083FF0028F2D11F4B186809F07DFF68B138
:1013D0000A220DF107011B4B186809F0C6FE01280F
:1013E000F1D19DF807000CF017F9ECE7164B1868DF
:1013F00009F06AFF68B10A220DF10701124B186863
:1014000009F0B3FE0128F1D19DF8070002F0EEF8D3
:10141000ECE709F087FA02F0DFF809F0A5FA64209A
:1014200009F05FF9C9E700BFE6060020E8080020E0
:10143000E506002060080020E4060020D807002010
:10144000F0060020EC060020E80600202DE9F0431D
:10145000AFB002F0A9FD7AE0DFED837A89E0DFED3D
:10146000827AA9E0DFED807ACAE09FED7F7ADFED36
:101470007F7A67EE276AFDEEE66A16EE904ADFF89D
:101480000082D8ED006A26EEA76ABDEEC66A16EEA7
:1014900010CA98ED026A66EE275AFDEEE55A15EE7F
:1014A000900AD8ED015A65EEA77AFDEEE77A17EEBD
:1014B000901A6F4B83FB019E4FEAE179C9EB6E19DD
:1014C0004FF0640E0EFB19110D91FDEEE55ACDEDB6
:1014D0000C5A83FB0019C117C1EB69110EFB1100F7
:1014E0000B90BDEEC66A8DED0A6A83FB0C104FEAC5
:1014F000EC71C1EB60110EFB11C10991FDEEE66AC2
:10150000CDED086AD8F80C10079183FB0413E1179E
:10151000C1EB63130EFB13430693BDEEC77A8DED4B
:10152000057A04978DED034A0296CDED014A0095A8
:1015300015EE103A4F490EA80CF03AFA0546002471
:10154000AC42C0F081804FF47A7009F0CAF84A4B7F
:10155000D3F8A8209B6E002B3FF47EAF4649D1ED17
:10156000196AF8EEE66A07EE903AB8EEE77AC6EE48
:10157000877ABDEEE75A9FED3D7A67EE877AFDEEFA
:10158000E77A17EE903A3A4981FB0301DD17C5EB84
:101590006115642101FB1535374B1B6F002B3FF4A0
:1015A0005EAF3549D1ED1B6AF8EEE66A07EE903A78
:1015B000B8EEE77AC6EE877AFDEEE74A9FED2B7A22
:1015C00067EE877AFDEEE77A17EE903A284981FBBD
:1015D0000301DE17C6EB6116642101FB1636264BAC
:1015E000D3F88830002B3FF43DAF2349D1ED216A79
:1015F000F8EEE66A07EE903AB8EEE77AC6EE877A3A
:10160000BDEEE74A9FED197A67EE877AFDEEE77A3D
:1016100017EE903A164981FB0301DF17C7EB6117FC
:10162000642101FB1737144B5B6C002B3FF41DAF9B
:101630001149D1ED106AF8EEE66A07EE903AF8EE3D
:10164000E77A86EEA77A12E704F1B8030DEB0306FA
:1016500016F8800C0BF0E0FF16F8801C074802F02B
:10166000E5FC01346CE700BF0000C07F0000C84209
:101670001F85EB51502B0108440E0020902B0108D0
:10168000340E002070B50C461646002504E014F810
:10169000010BFFF77FFD0135B542F8DB304670BD29
:1016A00008B509F01EF808BD30B583B00446002324
:1016B00001930268224B9A4215D02268214B9A422C
:1016C00022D02268204B9A422CD0019B4BB14FF084
:1016D000E0234FF08052C3F8042DBFF34F8FBFF3C8
:1016E0006F8F03B030BD194D28780BF095FF0023A4
:1016F00001AA29461648006809F0D0FC01222946B3
:10170000204608F073FAD8E7124D002301AA2946B3
:101710001148006809F0C2FC01222946204608F061
:1017200065FACEE70D4D002301AA29460C48006852
:1017300009F0B4FC01222946204608F057FAC4E714
:10174000003801400044004000480040E606002008
:10175000F0060020E5060020EC060020E40600204C
:10176000E8060020F8B505460E4617460C4C204604
:1017700003F0CBFA204603F0C8FA204603F026FA1D
:10178000204603F023FA204603F09EF93B463246FA
:101790002946044805F0C2FE00B10120F8BD00BF93
:1017A000CC0A0020140B0020F8B505460E4617465B
:1017B00003F086F80C4C204603F0A7FA204603F00D
:1017C000A4FA204603F002FA204603F0FFF920466F
:1017D00003F07AF93B4632462946044805F02AFFD1
:1017E00000B10120F8BD00BFCC0A0020140B00207E
:1017F00008B50268034B9A4200D008BD03F054F8C4
:10180000FBE700BF0010004072B6FEE708B51148C4
:10181000114B0360114B4360002383600122C260BF
:10182000036143618361C361036203F053FC50B9F8
:101830000021084803F0D1FF38B90021054803F022
:10184000FAFF20B908BDFFF7DFFFFFF7DDFFFFF765
:10185000DBFF00BF2C0D002000540040EC9C9010DA
:1018600008B50B480B4B03604FF4E1334360002392
:101870008360C36003610C2242618361C3610362C0
:10188000436208F018F900B908BDFFF7BDFF00BFBB
:10189000E80800200038014010B592B000240D94F3
:1018A0000E940F94109411940C942C22214601A8AC
:1018B0000CF05EFC2748284B036044607F23836064
:1018C000FF23C360046144618461C46105F08EFB41
:1018D000002837D100238DF834308DF835308DF85D
:1018E00036301093119301220DA91A4805F0DCFB44
:1018F00050BB01228DF830208DF831208DF8322038
:1019000000238DF833300CA9124805F033FCE8B9F8
:1019100000238DF804308DF805308DF806300293E1
:101920000493059306930893099301228DF82820C8
:101930004FF480730B9301A9064805F06DFC38B98C
:1019400012B010BDFFF760FFFFF75EFFFFF75CFF0F
:10195000FFF75AFF980B00200028004008B5084800
:10196000084B0360002303714371436183610123CA
:10197000036203F013F800B908BDFFF745FF00BF8D
:10198000800D00200030024008B50C480C4B03606D
:101990000123436000238360C36003614FF6FF723D
:1019A0004261036243624FF400028262C3620363D6
:1019B00003F06EFF00B908BDFFF726FFBC0B002047
:1019C0000094004008B51148114B0360114B43606F
:1019D000002383600122C260036143618361C361AC
:1019E000036203F077FB50B90021084803F0F5FECD
:1019F00038B90021054803F01EFF20B908BDFFF7E4
:101A000003FFFFF701FFFFF7FFFE00BFD80C002028
:101A100000580040EC9C901008B51148114B036031
:101A2000114B4360002383600122C2600361436164
:101A30008361C361036203F04DFB50B90021084884
:101A400003F0CBFE38B90021054803F0F4FE20B9BD
:101A500008BDFFF7D9FEFFF7D7FEFFF7D5FE00BFA1
:101A6000840C0020005C0040EC9C901008B51048ED
:101A7000104B03604FF482734360002383604FF484
:101A8000E062C26002220261012242614FF40072F0
:101A900082612822C2610362436283620722C262BA
:101AA0000363436306F0E1FA00B908BDFFF7ACFE3B
:101AB000680A00200030014008B50F480F4B036052
:101AC0004FF482734360002383604FF44072C2601E
:101AD000036143614FF480228261C3610362436208
:101AE00083620722C26203630823436306F0BDFAE0
:101AF00000B908BDFFF788FE040A00200038004046
:101B000010B59AB00024169417941894199413944D
:101B1000149415940C940D940E940F9410941194A5
:101B200012942C22214601A80CF022FB2F48304BA6
:101B300003600223436084602023C3600461446126
:101B40008023836107F004F8002842D14FF48053CA
:101B5000169316A9254807F03FF900283BD12348E2
:101B600007F026F8002838D140231393002314935C
:101B70008023159313A91D4807F0BEF900282ED124
:101B800060230C9300220D920E920F920423109367
:101B9000119212920CA9154807F074F808BB0023A3
:101BA000019302930393049305934FF4005206921A
:101BB000079308934FF0007209920A930B9301A9BF
:101BC0000A4807F0D1F970B9084800F0D1FB1AB003
:101BD00010BDFFF719FEFFF717FEFFF715FEFFF721
:101BE00013FEFFF711FEFFF70FFE00BFB80900203C
:101BF000002C014008B50B480B4B03604FF4165303
:101C0000436000238360C36003610C2242618361EF
:101C1000C3610362436207F04EFF00B908BDFFF7DE
:101C2000F3FD00BFD80700200048004008B50B486E
:101C30000B4B03604FF4E133436000238360C360C8
:101C400003610C2242618361C3610362436207F056
:101C500032FF00B908BDFFF7D7FD00BF60080020C4
:101C60000044004000B597B04422002105A80CF0C4
:101C70007FFA0023009301930293039304934FF49C
:101C8000007003F06BFE38BB3823059301230E93DD
:101C90000A930B9300220C9260220D9202220F9263
:101CA00010931193282312930723139314921592E0
:101CB00005A803F03DFF88B90F2300930323019388
:101CC00000230293039304930421684604F066FA08
:101CD00030B917B05DF804FBFFF796FDFFF794FDF0
:101CE000FFF792FD08B502F0CFFDFFF7BBFFFFF74E
:101CF0007BFAFFF7F1FAFFF789FDFFF7B1FDFFF778
:101D0000CBFDFFF761FAFFF729FEFFF73DFEFFF776
:101D100059FEFFF781FEFFF7A9FEFFF7CDFEFFF7A3
:101D2000EFFE08F0DFFAFFF765FFFFF77FFF02F035
:101D3000ABFB00221146C82002F03AFC02F05CFC2A
:101D40000028FBD002F09AF9012208211A4803F07A
:101D500073F91A480BF0B4FC08F036FC184A01215C
:101D6000402008F0CCFC174B1860174A0121402096
:101D700008F0C5FC154B1860154A0121402008F0F9
:101D8000BEFC144B1860144A0021144808F04AFCA9
:101D9000134B1860134A0021134808F043FC134BFF
:101DA0001860134A0021134808F03CFC124B1860DD
:101DB00008F01CFCFEE700BF00080048942B010857
:101DC000A02E0108F0060020882E0108EC06002055
:101DD000702E0108E8060020002F01088913000872
:101DE000FC060020DC2E01084D140008F806002037
:101DF000B82E01087D130008F406002000B583B05A
:101E00000D4B1A6E42F001021A661A6E02F00102C0
:101E10000092009A9A6D42F080529A659B6D03F091
:101E200080530193019B00220F216FF0010002F00B
:101E3000A1FD03B05DF804FB001002400268094BED
:101E40009A4200D0704782B0A3F500539A6C42F4D6
:101E500080529A649B6C03F480530193019B02B0FF
:101E6000704700BF00300240F0B5A3B00446002127
:101E70001D911E911F91209121915C2206A80CF0CA
:101E800077F92368624A934208D0624A934267D046
:101E9000614A934200F0908023B0F0BD4023069346
:101EA00006A804F0B7FB002851D15C4EF36C43F058
:101EB0000203F364F36C03F002030093009B4FF4FE
:101EC00010731D9312231E9300251F95032720973F
:101ED000042321931DA9524802F0CAFFB36D43F4B5
:101EE0000013B365B36D03F400130193019B4D48D8
:101EF0004D4B036047608560C56080230361456189
:101F00008561C561056202F0DFFD18BB454BE363E7
:101F10009C624648464B0360032343601023836062
:101F20000023C3608022026143618361C361036255
:101F300002F0CAFD88B93D4BA3639C6200220521D3
:101F4000202002F017FD202002F024FDA4E7FFF777
:101F50005BFCAAE7FFF758FCD8E7FFF755FCEAE778
:101F60008023069306A804F055FB10BB2B4CE36CB2
:101F700043F00203E364E36C03F002030293029B69
:101F80004FF440631D9312231E9300231F930323DA
:101F90002093042321931DA9214802F069FFA36D1A
:101FA00043F48003A365A36D03F480030393039BB1
:101FB00072E7FFF729FCD9E74FF48073069306A870
:101FC00004F028FB00BB154CE36C43F00403E3640E
:101FD000E36C03F004030493049B03231D93122278
:101FE0001E9200221F922093042321931DA91148C1
:101FF00002F03EFFA36D43F40003A365A36D03F459
:1020000000030593059B47E7FFF7FEFBDBE700BFF7
:102010000054004000580040005C004000100240A6
:10202000000400483C0C002080000240F40B00201B
:102030006C0002400008004810B59EB00446002124
:1020400019911A911B911C911D915C2202A80CF010
:102050008FF82268174B9A4201D01EB010BD4FF482
:102060008063029302A804F0D5FAF8B9124BDA6D36
:1020700042F02002DA65DA6D02F020020092009A46
:10208000DA6C42F00202DA64DB6C03F002030193C3
:10209000019B022319931A9300231B931C930E2375
:1020A0001D9319A9054802F0E3FED6E7FFF7ACFB44
:1020B000DCE700BF0094004000100240000400482C
:1020C00010B598B004465C22002101A80CF050F82D
:1020D00022680D4B9A4201D018B010BD4FF4003366
:1020E00001934FF40073179301A804F093FA38B9E1
:1020F000064AD2F8903043F40043C2F89030EBE740
:10210000FFF782FBF4E700BF002800400010024008
:102110002DE9F041A0B0044600211B911C911D91B6
:102120001E911F915C2204A80CF022F82268374B04
:102130009A4202D020B0BDE8F0814FF4002304930E
:1021400004A804F067FA00285AD1314B1A6E42F401
:1021500080621A661A6E02F480620192019ADA6C49
:1021600042F00402DA64DA6C02F004020292029A8B
:10217000DA6C42F00802DA64DB6C03F008030393C4
:10218000039B4FF4F8531B934FF00208CDF8708077
:1021900000251D9503271E970C261F961BA91D4879
:1021A00002F066FE04231B93CDF870801D951E97E8
:1021B0001F961BA9184802F05BFE1848184B0360D5
:1021C000072343608560C560802303614FF400737B
:1021D00043614FF400638361C5614FF400530362B0
:1021E00002F072FC78B90D4B23649C62E363002219
:1021F0000521312002F0BEFB312002F0CBFB99E734
:10220000FFF702FBA1E7FFF7FFFAECE70028014028
:102210000010024000080048000C0048CC0A0020D2
:1022200044040240F0B58BB0002305930693079356
:102230000893099303682F4A934204D02E4A93428D
:1022400036D00BB0F0BD2D4B1A6E42F480521A6698
:102250001A6E02F480520092009ADA6C42F0010287
:10226000DA64DA6C02F001020192019ADA6C42F04F
:102270000202DA64DB6C03F002030293029B022485
:1022800005940694012707970326089605250995C6
:1022900005A94FF0904002F0EBFD30230593069422
:1022A00007970896099505A9154802F0E1FDC8E7CA
:1022B000124B9A6D42F480429A659A6D02F4804204
:1022C0000392039ADA6C42F00202DA64DB6C03F0E8
:1022D00002030493049B4FF4704305930223069377
:1022E000032308930523099305A9054802F0C0FDBF
:1022F000A7E700BF00300140003800400010024056
:10230000000400480268174B9A4200D0704710B58D
:1023100082B0044603F564431A6E42F400621A6602
:102320001B6E03F400630193019B0F480F4B036086
:102330000723436000238360C360802202614FF45F
:102340008072426183612022C261036202F0BCFBA1
:1023500020B9054B63629C6202B010BDFFF754FACE
:10236000F7E700BF002C0140700900201C0002406C
:1023700000B587B000230193029303930493059360
:1023800002680F4B9A4202D007B05DF804FB03F5D8
:102390006443DA6C42F00102DA64DB6C03F001039F
:1023A0000093009B4FF480730193022302930493E4
:1023B0000123059301A94FF0904002F059FDE3E796
:1023C000002C014070B5A2B0044600211D911E9161
:1023D0001F91209121915C2206A80BF0C9FE236871
:1023E000754A934208D0754A934268D0744A934222
:1023F00000F0998022B070BD0123069306A804F076
:1024000009F9002852D16F4B1A6E42F480421A66C5
:102410001A6E02F480420092009ADA6C42F00102D5
:10242000DA64DB6C03F001030193019B4FF4F0537A
:102430001D9302261E9600251F9503232093072334
:1024400021931DA94FF0904002F012FD5E485F4BB2
:10245000036046608560C5608023036145618561D6
:10246000C561056202F030FB18BB574B63679C6285
:102470005748584B036002234360102383600023B6
:10248000C3608022026143618361C361036202F021
:102490001BFB88B94E4B23679C6200220521252037
:1024A00002F068FA252002F075FAA3E7FFF7ACF90D
:1024B000A9E7FFF7A9F9D8E7FFF7A6F9EAE70223AA
:1024C000069306A804F0A6F850BB3E4B9A6D42F462
:1024D00000329A659A6D02F400320292029ADA6C26
:1024E00042F00102DA64DB6C03F001030393039B07
:1024F0000C231D9302231E9300241F940323209377
:10250000072321931DA94FF0904002F0B1FC224611
:102510000521262002F02EFA262002F03BFA69E778
:10252000FFF772F9D1E70423069306A804F072F8C6
:1025300000283BD1234B9A6D42F480229A659A6D14
:1025400002F480220492049ADA6C42F00402DA6403
:10255000DB6C03F004030593059B30231D930226D7
:102560001E9600251F9503232093072321931DA961
:10257000194802F07DFC1948194B036046608560DC
:10258000C5608023036145618561C561056202F014
:102590009BFA70B9114B63679C62002205212720CA
:1025A00002F0E8F9272002F0F5F923E7FFF72CF90C
:1025B000C0E7FFF729F9EDE700380140004400408B
:1025C00000480040001002409007002058000240E0
:1025D000480700204400024000080048000700208F
:1025E0003000024030B589B00446214B9A6D42F06C
:1025F00010029A659B6D03F010030193019B02A9E1
:1026000003A803F0B9FE069BCBB903F091FE034685
:10261000184AA2FB03239B0C013B1748174A026090
:1026200040F2E732C260436000230361836083614C
:1026300006F08EFA054630B1284609B030BD03F0E9
:1026400077FE4300E4E70C4806F022F9054600282F
:10265000F2D1362002F09EF90F2C01D90125EBE7CB
:1026600000222146362002F085F9054B1C60E3E785
:102670000010024083DE1B43A40D00200010004028
:1026800008000020FEE7FEE7FEE7FEE7FEE77047F2
:1026900008B5024802F086FB08BD00BF70090020A3
:1026A00008B5024802F07EFB08BD00BF000700200D
:1026B00008B5024802F076FB08BD00BF48070020BD
:1026C00008B5024802F06EFB08BD00BF900700206D
:1026D00008B5024802F066FB08BD00BFF40B0020FD
:1026E00008B5024802F05EFB08BD00BF3C0C0020AC
:1026F00008B5024803F02FF808BD00BF2C0D0020DC
:1027000008B5024806F0BEFC08BD00BFE80800207E
:1027100008B5024806F0B6FC08BD00BF60080020FE
:1027200008B5024806F0AEFC08BD00BFD80700207F
:1027300008B5024805F0A8FA08BD00BF140B002038
:1027400008B5024806F0DFF808BD00BFA40D002060
:1027500008B50C4B1B6B812B0FD00A4B1B6B822BCC
:102760000BD0084B1B6B902B03D0064B1B6BA02B85
:1027700006D1054802F016FB02E0034802F012FB06
:1027800008BD00BF140B0020CC0A002001207047B8
:1027900008B50BF0ABFD162303604FF0FF3008BD0A
:1027A00008B54FF0FF31FFF7F3FFFEE770B50C46B9
:1027B0001646002506E0AFF30080214601F8010B24
:1027C00001350C46B542F6DB304670BD4FF0FF30A8
:1027D00070474FF400534B60002070470120704752
:1027E0000020704710B503460C4A0D490D4800689B
:1027F00040B10C4800680344521A934206D8094A73
:10280000136010BD0748084C0460F2E70BF06EFD42
:102810000C2303604FF0FF30F3E700BF00000120FE
:1028200000080000F00D002070440020034AD2F898
:10283000883043F47003C2F88830704700ED00E040
:10284000DFF834D0FFF7F2FF0C480D490D4A0023A2
:1028500002E0D458C4500433C4188C42F9D30A4A55
:102860000A4C002301E013600432A242FBD30BF0B8
:1028700043FDFFF737FAFEE70000012000000020CB
:10288000C8060020D4310108C80600206C4400208E
:10289000FEE7000030B583B004460023ADF80430F5
:1028A0008DF806300D4B1868A0B1456B032301AAC3
:1028B000FA2190F82900A8479DF804209DF80530DA
:1028C0001B0143EA02339DF8062043EA12132360FA
:1028D00003B030BD6FF07E00FAE700BFF40D0020BA
:1028E0000D4B19680B885A00C2EBE002B1F902C027
:1028F0000CFB02F2C3EB201000FB00F00013B1F957
:10290000043003FB00F0801300EBE220486200EB90
:102910008000803000127047F40D002030B583B085
:1029200004460023ADF804308DF806300D4B1868CE
:10293000A0B1456B032301AAF72190F82900A8470D
:102940009DF804209DF805301B0143EA02339DF8F1
:10295000062043EA1213236003B030BD6FF07E00FF
:10296000FAE700BFF40D002010B52E4B1A68516A2B
:102970004910A1F57A418B1003FB03F34FEAE32ED4
:10298000B2F91040B2F90EC001FB0CFC4FEA4C0C3E
:1029900004FB0ECCB2F90CE04FEA0E4E0EEBAC0C81
:1029A000B2F90AE05B1303FB0EFEB2F9083001FB3B
:1029B00003F35B1003EBEE039B1403F50043D18894
:1029C00001FB03F3DB1300EB2C30174901FB00F094
:1029D00000F1434000F5A000002819DBEBB14000F6
:1029E000B0FBF3F0B2F91610C30803FB03F35B0B63
:1029F00003FB01F18308B2F9144004FB03F35B13FA
:102A000003EB2133B2F91220134400EB231010BD65
:102A10002BB1B0FBF3F04000E4E70020F7E7002023
:102A2000F5E700BFF40D0020CBF3FFFF70B582B0D7
:102A30000023ADF804300B4B1C6884B10546666B6F
:102A4000022301AAFD2194F82900B0479DF8042033
:102A50009DF8053043EA02232B6002B070BD6FF091
:102A60007E00FAE7F40D00201D4B1A68536AA3F5A7
:102A7000963CB2F91E301B05C3EB8030B2F9203012
:102A80000CFB130000F58040C01392F922300CFBC0
:102A900003F39B12117F0CFB01F1C91201F50041F8
:102AA00001FB03F39B1203F50013B2F91A1001FBAB
:102AB00003F303F500539B1303FB00F0C31303FB65
:102AC00003F3DB11127E02FB03F3A0EB231020EAD9
:102AD000E070B0F1C85FA8BF4FF0C8500013704756
:102AE000F40D0020F0B583B0064600230093019357
:102AF000174B186848B30D461446476B08236A46BF
:102B0000F72190F82900B8479DF800209DF8013082
:102B10001B0143EA02339DF8022043EA121333609B
:102B20009DF803209DF804301B0143EA02339DF811
:102B3000052043EA12132B609DF806209DF807300C
:102B400043EA0223236003B0F0BD6FF07E00FAE792
:102B5000F40D0020F0B585B0002303930293019398
:102B60000E4B1B68BBB105460E46174601AA02A9CB
:102B700003A8FFF7B7FF04460298FFF7B1FE3060E5
:102B80000398FFF7F1FE28600198FFF76DFF3860AA
:102B9000204605B0F0BD6FF07E04F9E7F40D00208B
:102BA000F0B589B000230193029303930493059336
:102BB0000693ADF81C30494B1868002800F08B8054
:102BC000446B1A2301AA882190F82900A0470546E2
:102BD0009DF805209DF80430404E346843EA0223F6
:102BE00023809DF907209DF8063043EA0223638085
:102BF0009DF909209DF8083043EA0223A3809DF83F
:102C00000B209DF80A3043EA0223E3809DF90D2052
:102C10009DF80C3043EA022323819DF90F209DF893
:102C20000E3043EA022363819DF911209DF8103094
:102C300043EA0223A3819DF913209DF8123043EA51
:102C40000223E3819DF915209DF8143043EA022305
:102C500023829DF917209DF8163043EA02236382F0
:102C60009DF919209DF8183043EA0223A3829DF9AB
:102C70001B209DF81A3043EA0223E3829DF81D30A1
:102C80002376676B072301AAE12194F82900B8474E
:102C900055FA80F040B29DF905109DF80430326875
:102CA00043EA012353839DF8063013779DF90740CB
:102CB0009DF8083003F00F0141EA0411D1839DF91A
:102CC00009101B0943EA011313849DF90A3082F8A5
:102CD000223009B0F0BD6FF07E00FAE7F40D00205D
:102CE00030B583B000238DF80730144B18600524ED
:102CF000ACB1124B1868456B01230DF10702D021CE
:102D000090F82900A8479DF80730602B07D0013CB8
:102D1000E4B20A4B1B689B6B01209847E8E7074B1E
:102D20001B689DF8072083F828201CB1FFF738FFA7
:102D300003B030BD4FF0FF30FAE700BFF40D0020C4
:102D400070B582B000238DF807300B4B1C687CB146
:102D50000546666B01230DF10702F42194F8290062
:102D6000B0479DF8073003F003032B7002B070BD2D
:102D70006FF07E00FAE700BFF40D002010B582B0BE
:102D8000B6238DF80730084B186848B1046B01234F
:102D90000DF10702E02190F82900A04702B010BD14
:102DA0006FF07E00FAE700BFF40D002038B513463F
:102DB000064A146834B1256B0A46014694F8290086
:102DC000A84738BD6FF07E00FBE700BFF40D002080
:102DD00038B51346064A146834B1656B0A46014695
:102DE00094F82900A84738BD6FF07E00FBE700BFCC
:102DF000F40D002030B583B000238DF807308DF836
:102E000006308DF805308DF804303A4B1B68002BE6
:102E10006DD0044693F82E308DF8073003F01F0371
:102E200043EA40138DF807300DF10600FFF788FFE5
:102E30009DF80630002B37D12E4B1868056B012307
:102E40000DF10702F42190F82900A847294D2B68BD
:102E500083F82A4001220DF10701F420FFF7B8FFA3
:102E600004462B689DF8072083F82E2001220DF1DF
:102E70000701F220FFF7ACFF54FA80F0C4B22B68D0
:102E80009DF8072083F82D2001220DF10701F52080
:102E9000FFF79EFF54FA80F040B22B689DF80720A0
:102EA00083F82F2003B030BDFFF768FF114D2B686A
:102EB0009B6B032098472B6893F82F308DF80430D4
:102EC000012201A9F520FFF771FF2B6893F82D303F
:102ED0008DF8053001220DF10501F220FFF766FFA4
:102EE00001220DF10701F420FFF760FFAEE76FF05C
:102EF0007E00D7E7F40D002030B583B000238DF8B5
:102F000007308DF806308DF805308DF804303B4BD6
:102F10001B68002B6FD0044693F82E308DF80730D5
:102F2000820002F01C0223F01C0313438DF80730CB
:102F30000DF10600FFF704FF9DF80630002B37D196
:102F40002E4B1868056B01230DF10702F42190F850
:102F50002900A847294D2B6883F82B4001220DF149
:102F60000701F420FFF734FF04462B689DF8072083
:102F700083F82E2001220DF10701F220FFF728FF30
:102F800054FA80F0C4B22B689DF8072083F82D20F6
:102F900001220DF10701F520FFF71AFF54FA80F026
:102FA00040B22B689DF8072083F82F2003B030BD76
:102FB000FFF7E4FE114D2B689B6B032098472B68AD
:102FC00093F82F308DF80430012201A9F520FFF786
:102FD000EDFE2B6893F82D308DF8053001220DF1B0
:102FE0000501F220FFF7E2FE01220DF10701F420B6
:102FF000FFF7DCFEAEE76FF07E00D7E7F40D0020B0
:10300000F0B583B000238DF807308DF806308DF8C9
:1030100005308DF804304B4B1B68002B00F08F807F
:10302000064693F82D208DF8072000F0070322F0C4
:10303000070213438DF8073001A8FFF781FE04460D
:103040009DF80430002B4AD13E4D2868076B0123C0
:103050000DF10702F22190F82900B84754FA80F0E8
:10306000C4B22B6893F82E308DF8063001220DF192
:103070000601F420FFF79AFE54FA80F464B2314D51
:103080002B6883F82C6001220DF10701F420FFF773
:103090009FFE54FA80F4E4B22B689DF8072083F871
:1030A0002E2001220DF10701F220FFF791FE54FAC4
:1030B00080F4E4B22B689DF8072083F82D200122CC
:1030C0000DF10701F520FFF783FE54FA80F040B2BE
:1030D0002B689DF8072083F82F2003B0F0BDFFF781
:1030E0004DFE54FA80F4E4B2164D2B689B6B03201E
:1030F00098472B6893F82F308DF8053001220DF199
:103100000501F520FFF752FE54FA80F4E4B20122E3
:103110000DF10701F220FFF749FE54FA80F4E4B202
:103120002B6893F82E308DF8063001220DF1060140
:10313000F420FFF73BFE54FA80F464B29FE76FF08F
:103140007E00CAE7F40D002030B583B000238DF86F
:1031500007308DF806308DF805308DF804308DF885
:1031600003303B4B1B68002B6BD003286CD893F8C3
:103170002E308DF8073023F0030300F003000343E3
:103180008DF807300DF10600FFF7DAFD9DF80630E7
:10319000A3BB2F4B1868046B01230DF10702F42128
:1031A00090F82900A04701220DF10301F420FFF758
:1031B0000FFE0446264D2B689DF8032083F82E2031
:1031C00001220DF10301F220FFF702FE54FA80F014
:1031D000C4B22B689DF8032083F82D2001220DF145
:1031E0000301F520FFF7F4FD54FA80F040B22B689C
:1031F0009DF8032083F82F2003B030BDFFF7BEFDFC
:10320000134C23689B6B03209847236893F82F3057
:103210008DF80430012201A9F520FFF7C7FD2368CE
:1032200093F82D308DF8053001220DF10501F220C3
:10323000FFF7BCFD01220DF10701F420FFF7B6FDF9
:10324000B1E76FF07E00D7E76FF00100D4E700BF71
:10325000F40D002030B583B000238DF807308DF8D1
:1032600006308DF805308DF80430404B1B68002B7C
:1032700079D093F82F308DF8073003F01F0343EA1D
:1032800040108DF807000DF10500FFF759FD0446C9
:103290009DF80530002B37D1344B1868046B01239F
:1032A0000DF10702F52190F82900A04704460122FC
:1032B0000DF10701F420FFF78BFD54FA80F4E4B21E
:1032C0002A4D2B689DF8072083F82E2001220DF14E
:1032D0000701F220FFF77CFD54FA80F4E4B22B687A
:1032E0009DF8072083F82D2001220DF10701F5201C
:1032F000FFF76EFD54FA80F040B22B689DF807206E
:1033000083F82F2003B030BDFFF738FD54FA80F466
:10331000E4B2164D2B689B6B0320984701220DF1F8
:103320000701F520FFF742FD54FA80F4E4B22B6860
:1033300093F82D308DF80430012201A9F220FFF717
:1033400035FD54FA80F4E4B22B6893F82E308DF8F2
:10335000063001220DF10601F420FFF727FD54FA93
:1033600080F464B2A3E76FF07E00CBE7F40D002099
:1033700008B500EB80004000FEF792F908BD0000A0
:1033800070B590B015461C46002209920A920B9225
:103390000C920D920E920F92029203920492059259
:1033A00006920792089261F07F018DF82410102197
:1033B0004FF0904001F040FE05230093631C02AAE9
:1033C00009A9144804F0BFFF0646124991F85D10A0
:1033D000C9B20229F9D0012210214FF0904001F02A
:1033E0002BFE0520FEF75CF9002109E001F1010C3C
:1033F00001F141036B4413F8383C6B545FFA8CF1D4
:10340000A142F3D316B9002010B070BD4FF0FF30C9
:10341000FAE700BF680A002010B58EB01C464FF0D6
:10342000000C15E04FEA4C00C0B24B1C01F07F01CC
:1034300000F1380EEE440EF8381C12F80C1039303A
:10344000684400F8381C0CF1010C5FFA8CFCD9B20E
:10345000A445E7D3002210214FF0904001F0ECFD8D
:103460006423620069460B4804F06EFE0446094B73
:1034700093F85D30DBB2022BF9D0012210214FF01E
:10348000904001F0D9FD14B900200EB010BD4FF0EE
:10349000FF30FAE7680A002008B50C4B0C4A1A63A3
:1034A0000C4A5A630C4A9A63002210214FF0904054
:1034B00001F0C2FD0A20FEF7F3F8012210214FF0BF
:1034C000904001F0B9FD002008BD00BFF80D0020BC
:1034D00019340008813300087133000870B58AB0D0
:1034E00005460024099408940794059406940394CF
:1034F000049401940294FFF7CFFF3448FFF7F0FBE8
:1035000006460120FFF720FE06440120FFF778FD64
:1035100006440120FFF7F0FC06440120FFF76AFC97
:1035200006442046FFF796FE064407A8FFF77EFAFA
:10353000064409A8FFF7AEF9064408A8FFF7EEF91C
:10354000064407F011FA6420FEF7AAF807F0EAF93A
:1035500007AA08A909A8FFF7C5FA06440998FFF7C2
:10356000BFF905900898FFF7FFF903900798FFF758
:103570007BFA019002AA06A904A8FFF7EBFA064419
:10358000DDED067AF8EEE77A9FED117A87EE876A2D
:10359000DDED047AF8EE677AC7EE876ADDED027A30
:1035A000F8EE677A9FED0B7A67EE877A85ED006A11
:1035B000C5ED016AC5ED027A01F082F9E8602046A6
:1035C000FFF7C2FD30440AB070BD00BFF80D002007
:1035D0000000C8420000803A08B50348FFF77EFFAC
:1035E0004FF0FF3008BD00BF340E00200A280AD07B
:1035F0000D2808D02B490A68531C0B602A498854AF
:103600004F2B49D8704700B58BB0264B1A68264817
:1036100000218154196000F05DFB01300A2836D882
:10362000DFE800F0323235063513353535351F0009
:103630001D491E4800F0C2FB08B9002029E001F036
:103640003FF91B4BC3F8A400F7E71749184800F0EF
:10365000FBFB08B900201CE001F032F9144B18659F
:10366000F8E7114901A800F037FC08B9002010E084
:1036700001F026F90E4BC3F8A80001AA05A903F131
:10368000AC0000F063FCF1E74FF0FF3001E06FF0B9
:1036900001000BB05DF804FB024B00221A604FF0F2
:1036A000FF307047140F0020180F0020980E0020E4
:1036B000440E0020084B1B5C13F0970F07D02C28FA
:1036C00007D02A2801D00120704700207047002031
:1036D00070470020704700BFA12F0108A0F1300300
:1036E000DBB2092B0BD9A0F14103DBB2052B08D9C2
:1036F000A0F16103DBB2052B05D85738704730388D
:103700007047373870474FF0FF307047F8B50446C0
:1037100014F8013B242B2ED1002501E001345D403B
:10372000237833B12A2B04D0184AD25C12F0970FB9
:10373000F4D12A2B02D0B1B100201DE06078FFF750
:10374000CDFF0646B0F1FF3F17D0E71CA078FFF78A
:10375000C5FFB0F1FF3F12D040EA0610854210D1FC
:103760003C4600E0013423780D2BFBD00A2BF9D026
:103770004BB9012000E00020F8BD0020FCE700204C
:10378000FAE70020F8E70020F6E700BFA12F0108C4
:103790000EB42DE9F04F84B00D9E08B9002083E2ED
:1037A00004460EAB03930546002703E2002F40F0CA
:1037B0000A82384678E25DB12D782846FFF77AFF15
:1037C00000B90025039B1A1D03921B681D70E8E1D8
:1037D0000025F7E7FDB12D782846FFF76BFFE0B134
:1037E000453D122D00F26582DFE815F013006302FB
:1037F00063026302630263026302630263021300F3
:1038000063026302630263021E00630263026302D7
:103810001E00012102E0002100E00021039B1A1D8F
:1038200003921B681960BCE14FF0FF31F6E7002DF1
:1038300040F083804FF0000A4FF0FF39D346BBF1D0
:10384000000F02D1BAF1000F7DD0B9F1FF3F00F0B7
:103850003A82BAF1000F7BD0BBF1000F01D00BFB15
:1038600009F9039B1A1D03921B68C3F80090C3F863
:1038700004A096E1BBF1000F33D1B9F1FF3F30D185
:103880004FF0010B22E0BBF1000F2DD1B9F1FF3F4A
:103890002AD1CB461AE04FF0000930E0BAF1000F10
:1038A000CDD1002000E2B8F12E0F40D0B8F1200FAA
:1038B00040F00182BBF1000F40F0FF81B9F1FF3F02
:1038C00040F0FD81BAF1000F40F0FB81013595F821
:1038D00000804046FFF7EEFE0028B0D0B8F12B0F75
:1038E000C8D0B8F12D0FCED0A94B13F8083013F083
:1038F000040FD8D0A8F13008B9F1FF3FCBD06FF05A
:103900000043A3EB0803A34A82FB0312DB17C3EBBC
:10391000A2034B45C2DB09EB890908EB4909BAF15F
:10392000000FD3D00AEB8A0A4FEA4A0ACEE7BAF16F
:10393000000FBBD14FF0010AC8E74FF0000A4FF06B
:10394000FF39D346C3E7B9F1FF3F82D1D14683E7C0
:103950004FF0010A80E795B10A2202A9284609F032
:1039600053FF0546029B1878FFF7A4FE28B9039B76
:103970001A1D03921B681D6013E1002094E10025CD
:10398000F5E7039B1A1D0392D3F800801DB90023AD
:1039900088F8003005E195F800904846FFF78AFE68
:1039A0000028F4D00135434603F8019B9846F2E71E
:1039B000002D00F08A812B78242B40F088814FF075
:1039C0000008B8F1040F08DC08F1010815F8080038
:1039D000FFF770FE0028F4D166E1039B1A1D0392E5
:1039E0001B68D5F801201A606A791A7100225A7191
:1039F000D7E0039B1A1D0392D3F80080002D48D016
:103A000095F800904846FFF755FE60B94FF0FF303B
:103A100005468146C8F80090C8F80450C8F8080068
:103A2000BFE0002040E10023052B07DCEA5C584999
:103A30008A5C12F0040FF4D00133F5E78DF80090A2
:103A40006B788DF801304FF0000A8DF802A0AB784A
:103A50008DF80430EB788DF805308DF806A02B79C1
:103A60008DF808306B798DF809308DF80AA00A229C
:103A70005146684609F0C8FE81460A22514601A80F
:103A800009F0C2FE05460A22514602A809F0BCFE12
:103A9000C0E74FF0FF3005468146BBE7039B1A1D88
:103AA0000392D3F80080002D6CD095F80090484622
:103AB000FFF700FE78B94FF0FF33184699469A4653
:103AC000C8F800A0C8F80490C8F80800C8F80C307E
:103AD00067E00020E8E00023052B07DCEA5C2C49C6
:103AE0008A5C12F0040FF4D00133F5E78DF80090F2
:103AF0006B788DF801304FF0000B8DF802B0AB7889
:103B00008DF80430EB788DF805308DF806B02B7900
:103B10008DF808306B798DF809308DF80AB00A22DB
:103B20005946684609F070FE82460A22594601A8A5
:103B300009F06AFE81460A22594602A809F064FE8D
:103B400005F1070CAB792E2B19D05B46B8E703EBD8
:103B500083030CF1010C02EB4302A2F130030E4A85
:103B6000A2FB0112D1089CF80020094DAD5C15F0B4
:103B7000040F01D00129EAD801FB03F3A0E70749AC
:103B80000023F0E74FF0FF33184699469A4697E72F
:103B9000A12F010867666666CDCCCCCC40420F00F1
:103BA000013425782846FFF785FD0028F8D12C2D13
:103BB00072D000253378002B73D001363B2B6ED0AA
:103BC000002D3FF4F3AD443B302B6CD801A252F8EA
:103BD00023F000BFF3390008A73C0008A73C000809
:103BE000A73C0008A73C0008A73C0008A73C000829
:103BF000A73C0008A73C0008A73C0008A73C000819
:103C0000A73C0008A73C0008A73C0008A73C000808
:103C1000A73C00089D3A0008A73C0008A73C000804
:103C2000A73C0008A73C0008A73C0008A73C0008E8
:103C3000A73C0008A73C0008A73C0008A73C0008D8
:103C4000A33B0008A73C0008A73C0008A73C0008CD
:103C5000B7370008D5370008A73C00082F38000800
:103C6000A73C0008A73C000857390008A73C0008FB
:103C7000A73C0008A73C0008A73C0008A73C000898
:103C8000A73C0008A73C0008A73C0008A73C000888
:103C900083390008B1390008013425468AE7012735
:103CA00088E7012000E0002004B0BDE8F04F03B039
:103CB00070470020F8E70020F6E70020F4E7002036
:103CC000F2E70020F0E70020EEE70020ECE700201C
:103CD000EAE700BF10B582B00446FFF717FD0028E1
:103CE0003ED06A462B492046FFF752FD00283AD0C5
:103CF00029490DF10200FCF723FFB8B327490DF164
:103D00000200FCF71DFFA0B325490DF10200FCF7EE
:103D100017FF80B323490DF10200FCF711FF60B3D8
:103D200021490DF10200FCF70BFF40B31F490DF1D3
:103D30000200FCF705FF20B31D490DF10200FCF75E
:103D4000FFFE00B31B490DF10200FCF7F9FEE0B1E4
:103D500019490DF10200FCF7F3FEC0B1002006E0A6
:103D60004FF0FF3003E04FF0FF3000E0012002B0E1
:103D700010BD0220FBE70320F9E70420F7E7052048
:103D8000F5E70620F3E70720F1E70820EFE7092031
:103D9000EDE700BF102C0108142C0108182C0108B5
:103DA0001C2C0108202C0108242C0108282C0108B7
:103DB0002C2C0108302C0108342C010830B591B0AE
:103DC0000446084604F148030B9304F144030A93A4
:103DD00004F13C03099304F13803089304F1300320
:103DE000079304F12803069304F12403059304F1D7
:103DF000200304930CAB039304F1180302930DAB5F
:103E0000019304F11003009323460EAA0C49FFF717
:103E1000BFFC054678B10B490DF13A00FCF790FE66
:103E200060B922690D9B02FB03F32361A2690C9B1D
:103E300002FB03F3A361284611B030BD0025FAE769
:103E4000382C0108182C010810B592B0034608461A
:103E500003F148020F9203F140020E9203F138027F
:103E60000D9203F134020C9203F130020B9203F134
:103E70002C020A9203F12802099203F1240208920B
:103E800003F12002079203F11C02069203F11802CB
:103E9000059203F11402049203F11002039203F15C
:103EA0000C02029203F1080201921A1D009210AA5C
:103EB0000749FFF76DFC044628B106490DF14200A1
:103EC000FCF73EFE10B9204612B010BD0024FAE700
:103ED000482C0108202C010830B589B0044608465A
:103EE00004F12003049304F11C03039304F1180369
:103EF000029304F11403019304F110030093234689
:103F000006AA1049FFF744FC054698B10E490DF189
:103F10001A00FCF715FE60B9E369002BB8BF5B42DD
:103F20000D2B0ADC236A3B2B09DC002B02DA00256F
:103F300000E00025284609B030BD0025FAE700253D
:103F4000F8E700BF5C2C0108342C010870B504466A
:103F50008868B0F1FF3F1BD00D4616461068B0F1DF
:103F6000FF3F15D02422002120460AF001F9AB685A
:103F70004F2B0EDC643363616B68013B23612B685C
:103F8000E3603368A36073686360B36823600020F4
:103F900070BD40F26B72934203DDA3F26C736361F8
:103FA000EAE76361E8E7000030B58FB000F077F82A
:103FB00001228021194801F03FF84FF47A70FDF793
:103FC0006FFB01AC164D0FCD0FC40FCD0FC40FCD3D
:103FD0000FC42B682370002414E004F138036B44F1
:103FE00013F8343C8DF800300A23012269460D484D
:103FF00005F09AFC9DF8000009F00EFB6420FDF727
:104000004FFB0134302CE8D9074809F059FB42F640
:10401000F820FDF745FB00200FB030BD0008004838
:10402000682C0108E8080020642C01080FB430B5A2
:1040300083B006AA52F8041B01920E4809F0B8FC9E
:10404000054600240EE00B4B1B5D8DF800300A2363
:1040500001226946084805F067FC9DF8000009F058
:10406000DBFA0134AC42EEDB002003B0BDE83040A7
:1040700004B07047680F0020E808002008B500224F
:1040800020214FF0904000F0D7FF0A20FDF708FBF9
:10409000012220214FF0904000F0CEFF08BD08B56E
:1040A000002240214FF0904000F0C6FF0A20FDF7AB
:1040B000F7FA012240214FF0904000F0BDFF08BD0B
:1040C000826A544B984200D07047534B9A42FBD1BE
:1040D000524B1B889BB2002BF6D000B583B04F4BE0
:1040E0001B889BB2012B11D94C4B1B889BB2032B15
:1040F00000F28C802022002149480AF039F8474A12
:1041000013889BB201339BB213807FE000238DF8AC
:10411000073052E0434B1A78D2B29DF80730DBB239
:104120003F49CA543D4B1B889BB29B0001333E4A1A
:10413000D35CDBB29DF80720D2B2934013F0800F1E
:1041400052D0384B1A78D2B29DF807300833344930
:10415000CA54324B1B889BB29B000233324AD35C59
:10416000DBB29DF80720D2B2934013F0800F3FD00E
:104170002C4B1A78D2B29DF8073010332849CA5414
:10418000264B1B889BB29B000333274AD35CDBB2D0
:104190009DF80720D2B2934013F0800F2CD0214B12
:1041A0001A78D2B29DF8073018331D49CA549DF8C9
:1041B00007300133DBB28DF807309DF80730DBB2F2
:1041C000072B1DD8154B1B889BB2174A12F82330BA
:1041D000DBB29DF80720D2B2934013F0800F99D143
:1041E000124B1A78D2B298E7104B1A78D2B2ABE7DA
:1041F0000E4B1A78D2B2BEE70C4B1A78D2B2D1E786
:10420000064A13889BB201339BB2138003B05DF85A
:1042100004FB00BF70090020B80900206A110020CB
:104220006C110020B5110020AC110020B411002049
:1042300010B582B0846A894B984201D002B010BD9B
:10424000874B9C42FAD1874B1B889BB2002BF5D041
:10425000636A83421FD0A36A834225D0E36A834204
:104260002BD0236B834231D07E4B1B889BB2012B1A
:1042700035D97C4B1B889BB2032B00F2B3802022E4
:104280000021794809F074FF764A13889BB2013304
:104290009BB21380A3E001232377C369002BE3D1F2
:1042A000012384F83E30DFE702232377C369002B24
:1042B000DAD1012384F83F30D6E704232377C3699A
:1042C000002BD1D1012384F84030CDE70823237798
:1042D000C369002BC8D1012384F84130C4E700230F
:1042E0008DF8073019E0614B1A78D2B22BE05F4BA2
:1042F0001A78D2B23EE05D4B1A78D2B251E05B4BF5
:104300001A78D2B29DF8073038335949CA549DF80B
:1043100007300133DBB28DF807309DF80730DBB290
:10432000072B56D84F4B1B889BB2524A12F82330AA
:10433000DBB29DF80720D2B2934013F0800FD2D0A9
:104340004D4B1A78D2B29DF8073020334849CA54F1
:10435000444B1B889BB29B000133464AD35CDBB2C3
:104360009DF80720D2B2934013F0800FBFD0424B8C
:104370001A78D2B29DF8073028333D49CA54394BD8
:104380001B889BB29B0002333A4AD35CDBB29DF898
:104390000720D2B2934013F0800FACD0364B1A787E
:1043A000D2B29DF8073030333149CA542D4B1B88A7
:1043B0009BB29B0003332F4AD35CDBB29DF80720EE
:1043C000D2B2934013F0800F99D02B4B1A78D2B20F
:1043D00098E7244A13889BB201339BB213800023D1
:1043E00023772BE71F4B00221A802268D36823F41F
:1043F0000073D360606A00F0ADFC23681F4A9342EB
:104400001CD002F5A052934218D002F5806293426C
:1044100014D02368196A41F21112114208D1196AA5
:1044200040F24442114203D11A6822F001021A609C
:10443000012384F83E30124A1370D0E7196A41F222
:1044400011121142E5D1196A40F244421142E0D101
:104450005A6C22F400425A64DBE700BF7009002066
:10446000B80900206A1100208C110020B41100202E
:104470006C110020AC110020B5110020002C01406F
:1044800068110020000000002DE9704301F050FF8A
:10449000254B9B6813F4E06F3AD1012303FB00F036
:1044A000000A224BA3FB00300009214B1D680026A7
:1044B000AE62431E9BB2EB6201246C61FBF7C2FF4C
:1044C0008046894614A3D3E90023FCF735F8FCF7AE
:1044D000F5FAC0B20138C0B2164B187010A3D3E978
:1044E000002340464946FCF727F8FCF7E7FAC0B23C
:1044F0000138C0B2104B1870104B1C702246314668
:10450000284604F0E9FC2046FDF7CAF8BDE87083B0
:104510000223C3E7AFF30080B81E85EB51B8DE3F3E
:10452000B81E85EB51B8CE3F00100240598B4F01A9
:10453000B8090020B5110020B41100206811002036
:1045400010B5012801D900F00100174C94F800E0E3
:104550000EF1010E4FF4807C9CFBFEFE91FBFEF100
:1045600094F800E00EF1010E9CFBFEFE247801346D
:104570009CFBF4FC92FBFEF2B02404FB02F2120A54
:1045800093FBFCF3C3EB0313C3F307134FEA800C55
:10459000064C04F820100CF1010162540CF1020CDD
:1045A00004F80C3010BD00BF04000020AC11002046
:1045B00070B582B006460D4614460023ADF80630AD
:1045C00011E0BDF8060023462A46314680B2FFF7C7
:1045D000B7FFBDF806C01FFA8CFC0CF1010C1FFAE6
:1045E0008CFCADF806C0BDF806C01FFA8CFCBCF10F
:1045F000010FE6D902B070BD964B00221A70964B9F
:104600001B889BB2002B40F0238130B583B0934BC5
:1046100093F82540E4B2012C02D0002003B030BD55
:104620008DF8072029E08E4B1A78D2B238E08C4BF7
:104630001A78D2B246E08A4B1A78D2B254E0884B4C
:104640001A78D2B262E0864B1A78D2B270E0844B0C
:104650001A78D2B27FE0824B1A78D2B28EE0814BC8
:104660001A78D2B29DF8073038337F49CA549DF882
:1046700007300133DBB28DF807309DF80730DBB22D
:10468000072B00F28F80794B1B78DBB29DF8072057
:10469000D2B2934013F0800FC5D0724B1A78D2B2C9
:1046A0009DF80730DBB27049CA54704B5B78DBB2BF
:1046B0009DF80720D2B2934013F0800FB7D0694B1A
:1046C0001A78D2B29DF8073008336749CA54674B4D
:1046D0009B78DBB29DF80720D2B2934013F0800F95
:1046E000A9D0604B1A78D2B29DF8073010335E49DA
:1046F000CA545E4BDB78DBB29DF80720D2B2934000
:1047000013F0800F9BD0574B1A78D2B29DF8073028
:1047100018335549CA54554B1B79DBB29DF8072015
:10472000D2B2934013F0800F8DD04E4B1A78D2B294
:104730009DF8073020334C49CA544C4B5B79DBB2AF
:104740009DF80720D2B2934013F0800F3FF47FAF63
:10475000444B1A78D2B29DF8073028334249CA54E4
:10476000424B9B79DBB29DF80720D2B2934013F005
:10477000800F3FF470AF3B4B1A78D2B29DF80730F0
:1047800030333949CA54394BDB79DBB29DF8072005
:10479000D2B2934013F0800F7FF461AF304B1A78A0
:1047A000D2B25FE72546002D41D0314B93F83E5001
:1047B000EDB2022DF7D093F83E50EDB2012D01D0AD
:1047C0002546F0E7022283F83E20586A294AC26251
:1047D000294A0263294A42631A6840233432224933
:1047E00000F058FA0028DED1214B1B68DA6842F449
:1047F0000072DA60224A934207D002F5A052934237
:1048000003D002F58062934203D15A6C42F4004215
:104810005A641B4A93420ED0B3F1804F0BD002F57D
:10482000A052934207D01A6842F001021A60022097
:10483000094B1880F2E69968124A0A40062AF6D017
:10484000B2F5803FF3D01A6842F001021A60EEE739
:1048500000207047681100206A11002070090020B4
:10486000B4110020B51100206C110020AC11002003
:10487000B809002031420008C1400008838A0008BE
:10488000002C01400700010010B5032000F060F883
:104890000F20FDF7A7FE10B10124204610BD0446ED
:1048A000FDF7ACFAF9E70000034B1B78034A1168E7
:1048B0000B441360704700BF05000020B8110020B2
:1048C000014B1868704700BFB8110020002807DBB3
:1048D00000F01F02400901239340024A42F82030B1
:1048E000704700BF00E100E0002808DB0901C9B201
:1048F00000F1604000F5614080F80013704700F05F
:104900000F000901C9B2014B1954704714ED00E0C2
:1049100000B500F00700C0F1070CBCF1040F28BF80
:104920004FF0040C031D062B0FD9C31E4FF0FF3EA2
:104930000EFA0CF021EA000199400EFA03FE22EA79
:104940000E0241EA02005DF804FB0023EEE70000DE
:10495000074AD36823F4E0631B041B0C000200F435
:10496000E060034343F0BF6343F40033D360704718
:1049700000ED00E010B50446054BD868C0F30220F6
:10498000FFF7C6FF01462046FFF7AEFF10BD00BF90
:1049900000ED00E008B5FFF799FF08BD002838D00A
:1049A00010B50446437F1BB30223637723791BBBF7
:1049B0002368194A5A612268936823F018039360A8
:1049C000637913BB23684FF0FF321A612268936842
:1049D00023F0600361690B4393602268936823F0BE
:1049E0008003A1690B43936001236377002010BD0E
:1049F0000377FDF723FAD7E7E268A168204600F0C5
:104A00000DF80028DCD00120F1E7236822691A6143
:104A1000DCE70120704700BFB71DC10411F0010F92
:104A200030D010B41F231C46013B34B103F01F0CDF
:104A300021FA0CFC1CF0010FF5D0182A24D8DFE86D
:104A400002F00F232323232323231D2323232323A4
:104A5000232319232323232323230D00062B17D8D5
:104A60000368596101688B6823F0180313438B6056
:104A700000200AE0072BF3D9012006E00F2BEFD925
:104A8000012002E00120704701205DF8044B7047CF
:104A90000120FAE730B4446C04F01C0C012404FA41
:104AA0000CF4056C6C60046863608368102B05D09F
:104AB000036899600368DA6030BC704703689A60E5
:104AC0000368D960F8E70000002871D010B40346ED
:104AD0000168384A914248D8374A0A443748A0FB0F
:104AE0000202120992005A64354A1A64022283F8BB
:104AF000252008686FF30E109A68DC6822431C6951
:104B000022435C6922439C692243DC6922431C6A7C
:104B1000224302430A609A68B2F5804F1BD0196C99
:104B2000274A91422CD0264AD2F8A814586C00F09B
:104B30001C0C0F2000FA0CF021EA0001C2F8A814A6
:104B4000D2F8A81458685C6C04F01C0C00FA0CF045
:104B50000143C2F8A8140020D863012283F825205D
:104B600083F824005DF8044B7047164A0A44134842
:104B7000A0FB0202120992005A64134A1A64B5E7B4
:104B8000D2F8A810586C00F01C0C0F2000FA0CF0A2
:104B900021EA0001C2F8A810D2F8A81058685C6C8D
:104BA00004F01C0C00FA0CF00143C2F8A810D2E784
:104BB0000120704707040240F8FFFDBFCDCCCCCCEC
:104BC00000000240F8FBFDBF00040240002852D064
:104BD00010B4034601680A6822F001020A60016805
:104BE000264A91422FD8264A0A442648A0FB0202B0
:104BF000120992005A64244A1A6400220A605A6C0C
:104C000002F01C01186C01228A404260196C1E4A95
:104C1000914223D01C4CD4F8A824596C01F01C00FC
:104C20000F21814022EA0102C4F8A8240020D862A2
:104C3000186358639863D86383F8250083F82400C9
:104C40005DF8044B7047114A0A440E48A0FB02026B
:104C5000120992005A640E4A1A64CEE71446D2F83A
:104C6000A820596C01F01C000F21814022EA0102AA
:104C7000C4F8A820DAE70120704700BF070402400B
:104C8000F8FFFDBFCDCCCCCC00000240F8FBFDBF4F
:104C90000004024038B5044690F82400012832D0C0
:104CA000012084F8240094F82500C0B2012804D023
:104CB000002384F82430022038BD022084F8250027
:104CC0000020E0632568286820F001002860204665
:104CD000FFF7E0FE236B5BB12268136843F00E031D
:104CE00013602268136843F0010313600020E3E7B8
:104CF0002268136823F0040313602268136843F0EA
:104D00000A031360EDE70220D6E790F82530DBB206
:104D1000022B06D00423C363002380F82430012033
:104D200070470268136823F00E031360026813686B
:104D300023F001031360436C03F01C03016C012298
:104D400002FA03F34B6080F82520002380F824301A
:104D50001846704708B590F82530DBB2022B03D017
:104D60000423C363012008BD0268136823F00E0307
:104D700013600268136823F001031360436C03F0AF
:104D80001C03016C012202FA03F34B6080F825201A
:104D9000002380F82430836B13B198470020E2E7AA
:104DA0000020E0E738B5036C196804682568436C97
:104DB00003F01C0304229A400A4215D015F0040F98
:104DC00012D0236813F0200F03D1236823F00403CB
:104DD0002360436C03F01C02016C042393404B607E
:104DE000036B03B1984738BD02229A400A421CD097
:104DF00015F0020F19D0236813F0200F06D1236895
:104E000023F00A032360012380F82530436C03F06C
:104E10001C02016C022393404B60002380F8243075
:104E2000C36A002BDFD09847DDE7082202FA03F3BC
:104E30000B42D8D015F0080FD5D0236823F00E030D
:104E40002360436C03F01C03016C012202FA03F39C
:104E50004B60C26380F82520002380F82430436B28
:104E6000002BC0D09847BEE790F82500704700009F
:104E7000F0B583B0002362E085685E000324B4408F
:104E800025EA0405CC68B4402C438460456825EAD3
:104E90000C054C68C4F300149C402C4344605FE054
:104EA000DD08083550F8254003F0070C4FEA8C0C5C
:104EB0004FF00F0E0EFA0CFE24EA0E0E0C6904FAE7
:104EC0000CF444EA0E0440F8254060E0042400E0BD
:104ED000002404FA0EF42C430CF1020C524D45F858
:104EE0002C40524CA568D44325EA02064F6817F4BB
:104EF000801F01D042EA05064C4DAE60ED6804EA21
:104F000005064F6817F4001F01D042EA0506474D19
:104F1000EE606D6804EA05064F6817F4003F01D0A3
:104F200042EA0506414D6E602D682C404E6816F42D
:104F3000803F01D042EA05043C4A146001330A680C
:104F400032FA03F46ED04FF0010C0CFA03FC1CEAA9
:104F50000202F3D04C6804F00304013C012C8BD90D
:104F60004C6804F00304032C0CD0C4685D004FF0BF
:104F7000030C0CFA05FC24EA0C0C8C68AC4044EAE7
:104F80000C04C4604C6804F00304022C88D004684C
:104F90004FEA430E4FF0030C0CFA0EFC24EA0C0C03
:104FA0004C6804F0030404FA0EF444EA0C040460B0
:104FB0004C6814F4403FC1D01D4C256E45F00105EE
:104FC0002566246E04F001040194019C4FEA930CC1
:104FD0000CF10205144C54F8255003F0030E4FEA6F
:104FE0008E0E0F2404FA0EF425EA0405B0F1904F5A
:104FF0003FF46EAF0F4CA0420ED004F58064A04287
:105000000CD004F58064A0420AD004F58064A0426C
:105010003FF45CAF07245CE701245AE7022458E719
:10502000032456E703B0F0BD000001400004014036
:1050300000100240000400480AB18161704781629B
:10504000704703689A6912F0020F01D000229A6239
:1050500003689A6912F0010F03D19A6942F00102C4
:105060009A61704711F0010F09D090F8413003F0B8
:105070002803282B01D0F22302E0422300E0002382
:1050800011F0020F09D043F0440C90F8412002F0D7
:105090002802282A10D043F0F40311F4004F0DD158
:1050A00010290ED020290FD0402910D001680A689D
:1050B00022EA03030B6070476346EEE743F0B80350
:1050C000EEE743F09003EDE743F02003ECE743F015
:1050D0004003EBE700285FD010B5044690F841305C
:1050E000002B48D0242384F841302268136823F031
:1050F000010313606368226823F070631361226800
:10510000936823F400439360E368012B38D0A368CD
:10511000226843F404439360E368022B36D022688C
:10512000536823F4006353602268536843F00073AC
:1051300043F4004353602268D36823F40043D360F0
:10514000236962691343A169226843EA0123D3609A
:10515000E369216A22680B4313602268136843F0F5
:105160000103136000206064202384F84130206331
:1051700084F8420010BD80F84030FCF775FEB1E7BE
:10518000A368226843F400439360C5E7226853682C
:1051900043F400635360C7E70120704770477047CE
:1051A00010B5044603681A68002180F8421012F412
:1051B000804F0ED01A6822F480421A6094F8413071
:1051C000DBB2292B0DD094F84130DBB22A2B18D05A
:1051D00010BD12F4004FF1D01A6822F400421A6098
:1051E000ECE7282384F84130212323630121204662
:1051F000FFF738FF002384F840302046FFF7CEFF4A
:10520000E6E7282384F84130222323630221204645
:10521000FFF728FF002384F840302046FFF7BFFF48
:10522000D6E77047F8B5044690F8413003F02803FC
:10523000282B06D003680822DA61002380F840306A
:10524000F8BD03689E69C6F300469A69120C02F025
:10525000FE059A68C2F30902DF6807F0FE07C1681D
:10526000022922D185EAD21515F0060F10D1816CE2
:1052700001318164816C0229E2D10021816408201E
:10528000D86184F8401031462046FFF7CAFFD7E7BF
:105290004FF40041FFF7E6FE002384F840303A4621
:1052A00031462046FFF7BDFFCAE74FF40041FFF744
:1052B000D9FE002384F840302A4631462046FFF7C5
:1052C000B0FFBDE77047000010B50446174BC3623E
:1052D00000230363202280F8412080F8423043639A
:1052E00011F0040F13D003685A6A436A1A70436AB4
:1052F00001334362038D53B1013B0385438D9BB260
:10530000013B9BB24385436C43F00403436448F282
:1053100003012046FFF7A6FE23681022DA6100236E
:1053200084F840302046FFF7CDFF10BD0000FFFF9E
:105330007047704708B590F84130DBB2602B06D05B
:105340000023036380F84030FFF7F2FF08BD2023FD
:1053500080F841300023036380F84030FFF7E9FF15
:10536000F4E7000010B5044690F84130002280F8C0
:1053700042204548E0626285626C0A436264283BD1
:10538000DBB2022B19D803212046FFF76BFE28233E
:1053900084F841303D4B6363236BA26B1AB1112B30
:1053A00030D0212B2ED0E26B1AB1122B4BD0222BF6
:1053B00049D02046FFF7BEFF10BD48F2030120464A
:1053C000FFF750FE2046FFF73CFE94F84130DBB279
:1053D000602B14D0202384F8413023689A6912F09E
:1053E000200F0CD09A6912F0100F05D01022DA614C
:1053F000636C43F00403636423682022DA610023B2
:105400006363C9E723681A6812F4804F03D01A68EF
:1054100022F480421A60A06BFFF726FD01280ED00F
:10542000A36B1B4A9A63002384F84030A06BFFF7FC
:1054300091FC0028C0D0A06B836B9847BCE7204646
:10544000FFF778FFB8E723681A6812F4004F03D01B
:105450001A6822F400421A60E06BFFF705FD01288C
:105460000ED0E36B0A4A9A63002384F84030E06B65
:10547000FFF770FC00289FD0E06B836B98479BE799
:105480002046FFF757FF97E70000FFFF0956000887
:10549000C157000870B504460D460268166890F8BA
:1054A00041302021D161213B092B0CD8DFE803F0EA
:1054B00005630B0B0B0B0B6A056348F20101FFF749
:1054C000D1FD212323632268536843F400435360D2
:1054D0002268536823F0FF7323F48B3323F4FF73A4
:1054E00023F0010353602046FFF7ABFD16F4804F15
:1054F0004FD02268136823F480431360A36B1BB161
:105500001B685B689BB2638515F0040F11D025F012
:10551000040523685A6A636A1A70636A0133636216
:10552000238D33B1013B2385638D9BB2013B9BB23D
:105530006385638D9BB21BB1636C43F004036364AA
:10554000002384F842306363636C002B31D1E36A3B
:1055500013F5803F3BD194F84130DBB2222B46D08B
:10556000202384F841300023236384F84030204610
:10557000FFF714FE3AE048F20201FFF773FD222321
:105580002363A0E748F20301FFF76CFD00232363C8
:1055900099E716F4004FB7D02268136823F400434C
:1055A0001360E36B002BAFD01B685B689BB2638515
:1055B000AAE7616C2046FFF7D5FE94F84130DBB2D4
:1055C000282B13D129462046FFF77EFE0EE0204609
:1055D000FFF7E6FD0B4BE362202384F84130002304
:1055E000236384F840302046FFF76CFE70BD202313
:1055F00084F841300023236384F840302046FFF7CD
:10560000CEFDF3E70000FFFFF8B5C76A90F8403021
:10561000012B00F09E8004460D461646012380F8BB
:10562000403011F0200F02D012F0200F19D115F0E8
:10563000100F3ED016F0100F3BD0638D9BB243BBD2
:1056400094F84130DBB2282B0ED094F84130DBB215
:10565000292B11D023681022DA61002084F8400041
:10566000F8BDFFF717FFE2E7B7F1007FEDD129465C
:105670002046FFF729FEF0E717F5803FEAD02368C0
:105680001022DA612046FFF7DCFC2046FFF788FD98
:10569000E3E723681022DA61636C43F00403636478
:1056A00017B1B7F1807FD8D1616C2046FFF75AFE61
:1056B000D3E715F0040F1FD016F0040F1CD0638D34
:1056C0009BB273B123685A6A636A1A70636A0133C2
:1056D0006362238D013B2385638D9BB2013B9BB2AB
:1056E0006385638D9BB2002BB7D117F5803FB4D093
:1056F0002046FFF755FDB0E715F0080F02D016F071
:10570000080F18D115F0020FA7D016F0020FA4D081
:10571000638D9BB2A3B1626A236812789A62636A4E
:1057200001336362638D9BB2013B9BB26385238D22
:10573000013B238591E729462046FFF773FD8CE75F
:10574000B7F1807F01D0002F87D12046FFF728FDD9
:1057500083E7022084E710B502689369116813F4A7
:10576000807F09D011F0800F06D0446C44F0010412
:1057700044644FF48074D46113F4806F0AD011F044
:10578000800F07D0426C42F00802426402684FF476
:105790008064D46113F4007F0AD011F0800F07D029
:1057A000436C43F00203436403684FF40072DA6110
:1057B000416C11F00B0F00D110BDFFF7D3FDFBE7DB
:1057C00008B5806A836B0BB100229A63C36B0BB17F
:1057D00000229A63FFF7AEFD08BD034690F8412012
:1057E000D2B2202A23D190F84020012A21D00122D0
:1057F00080F84020242280F841200068026822F0CE
:10580000010202601868026822F48052026018687F
:1058100002681143016019680A6842F001020A60D7
:10582000202283F84120002083F8400070470220A6
:10583000704702207047034690F84120D2B2202AD8
:1058400021D190F84020012A1FD0012280F8402069
:10585000242280F841200068026822F001020260E0
:105860001868026822F4706242EA01220260196834
:105870000A6842F001020A60202283F841200020D9
:1058800083F84000704702207047022070470000F4
:10589000002854D0F8B5044690F83630002B44D098
:1058A000022384F836302568EB686168012903D04B
:1058B000A26AB2F5000F01D123F01E0362694FF610
:1058C000FF70824203D023F4604323F0C0031D48DD
:1058D0001840A3680B43266A3343666A3343A66ABB
:1058E0003343034319B9E069276938430343012966
:1058F00002D0B6F5000F03D1E168206901430B43E4
:105900004FF6FF718A4204D0A1690A43E1690A4354
:105910001343EB6023680C4A93420BD0E26A1A628D
:10592000012384F836300020F8BD80F83530FCF7CC
:1059300083FBB5E7E26A216B0A431A62F0E70120B4
:10594000704700BFFEF119FF007C0040024B186851
:1059500000F4C060704700BF00700040B0F5007FE9
:105960000FD01F4B1B6803F4C063B3F5806F34D0B6
:105970001B4A136823F4C06343F480631360002060
:105980007047174B1B6803F4C063B3F5007F20D04A
:10599000134A136823F4C06343F400731360114B7C
:1059A0001B68322202FB03F30F4AA2FB03239B0C6A
:1059B000013300E0013B0A4A526912F4806F01D0C2
:1059C000002BF7D1064B5B6913F4806F03D10020E5
:1059D000704700207047032070470020704700BFC9
:1059E000007000400000002083DE1B4330B583B010
:1059F0000446204B9B6D13F0805F0BD0FFF7A6FF92
:105A0000B0F5007F17D0802C1FD82DD0702C2DD052
:105A100000211BE0174DAB6D43F08053AB65AB6DC0
:105A200003F080530193019BFFF790FFAB6D23F0D0
:105A30008053AB65E4E7802C03D9A02C03D9022165
:105A400004E0002102E0012100E003210A4A13687A
:105A500023F007030B431360136803F007038B4223
:105A600006D1002003B030BD0221EFE70121EDE7B0
:105A70000120F7E70010024000200240284A936806
:105A8000D26802F0030213F00C030AD00C2B06D0EC
:105A9000042B1FD0082B20D00020024610E0012A42
:105AA000F6D11F4A126812F0080F0CD11C4AD2F826
:105AB0009420C2F303221B4951F8222043B1002055
:105AC0000C2B0DD07047164A1268C2F30312F2E78E
:105AD0001046F5E714480022F2E714480022EFE7E9
:105AE0000F4BDB6803F00303022B03D0032B02D11F
:105AF0000E4A00E00C4A0A49CB68C3F30213013393
:105B0000C868C0F3062002FB00F0B0FBF3F0CB68DE
